:020000023000CC
:108000000000000000000000000000000000000070
:108010000000000000000000000000000000000060
:108020000000000000000000000000000000000050
:108030000000000000000000000000000000000040
:108040000000000000000000000000000000000030
:108050000000000000000000000000000000000020
:108060000000000000000000000000000000000010
:108070000000000000000000000000000000000000
:1080800000000000000000000000000000000000F0
:1080900000000000000000000000000000000000E0
:1080A00000000000000000000000000000000000D0
:1080B00000000000000000000000000000000000C0
:1080C00000000000000000000000000000000000B0
:1080D00000000000000000000000000000000000A0
:1080E0000000000000000000000000000000000090
:1080F0000000000000000000000000000000000080
:10810000000000000000000000000000000000006F
:10811000000000000000000000000000000000005F
:10812000000000000000000000000000000000004F
:10813000000000000000000000000000000000003F
:10814000000000000000000000000000000000002F
:10815000000000000000000000000000000000001F
:10816000000000000000000000000000000000000F
:1081700000000000000000000000000000000000FF
:1081800000000000000000000000000000000000EF
:1081900000000000000000000000000000000000DF
:1081A00000000000000000000000000000000000CF
:1081B00000000000000000000000000000000000BF
:1081C00000000000000000000000000000000000AF
:1081D000000000000000000000000000000000009F
:1081E000000000000000000000000000000000008F
:1081F000000000000000000000000000000000007F
:10820000802A0020699E0300A7FA0300559E030000
:10821000559E0300559E0300559E0300000000007C
:108220000000000000000000000000001DA003008E
:10823000559E030000000000E99F0300559E0300C7
:10824000D1A10300D1A10300D1A10300D1A103005A
:10825000D1A10300D1A10300D1A10300D1A103004A
:10826000D1A10300D1A10300D1A10300D1A103003A
:10827000D1A10300D1A10300D1A10300D1A103002A
:10828000D1A10300D1A10300D1A10300D1A103001A
:10829000D1A10300D1A10300D1A10300D1A103000A
:1082A000D1A10300D1A10300D1A10300D1A10300FA
:1082B000D1A10300D1A10300D1A10300D1A10300EA
:1082C000D1A10300D1A10300D1A10300D1A10300DA
:1082D000D1A10300D1A10300D1A10300D1A10300CA
:1082E000D1A10300D1A10300D1A10300D1A10300BA
:1082F000D1A10300D1A10300D1A10300D1A10300AA
:1083000053B94AB9002908BF00281CBF4FF0FF31FC
:108310004FF0FF3000F00CB8ADF1080C6DE904CE61
:1083200000F010F8DDF804E0DDE9022304B0704746
:10833000704700BF034613F8012B002AFBD1181A1F
:10834000013870472DE9F04786468C460846089E5E
:10835000154674461946002B40F0C2808542B2FA99
:1083600082F245D94AB1C2F1200300FA02FC2EFA8A
:1083700003F3954043EA0C0C94404FEA154EA8B223
:10838000BCFBFEF8230C0EFB18CC08FB00F943EAFB
:108390000C43994528D9EB1808F1FF3704D29945C9
:1083A00002D9A8F102072B44A3EB0903A4B2B3FB43
:1083B000FEFC0EFB1C330CFB00F044EA0344A0421D
:1083C00014D92C190CF1FF3304D2A04202D9ACF11C
:1083D00002032C44241A43EA07401EB1D440002370
:1083E00034607360BDE8F0874746DDE76346F1E738
:1083F00092BB431B01214FEA154EAFB2B3FBFEFC0B
:10840000200C0EFB1C330CFB07F840EA0343984595
:1084100062D9EB180CF1FF3004D2984502D9ACF1C7
:1084200002002B44A3EB0803A4B2B3FBFEFC0EFB3B
:108430001C330CFB07F744EA0344A7424ED92C191E
:108440000CF1FF3304D2A74202D9ACF102032C4451
:10845000E41B43EA0040C0E7C2F1200320FA03F125
:10846000954090402EFA03F303434FEA154EAFB206
:10847000B1FBFEFC0EFB1C10190C0CFB07F841EACB
:108480000041884504FA02F422D969180CF1FF3042
:1084900004D2884502D9ACF102002944A1EB0801BD
:1084A0009BB2B1FBFEFC0EFB1C110CFB07F743EA71
:1084B00001439F420ED9EB180CF1FF3104D29F42C9
:1084C00002D9ACF102012B44DB1B41EA004192E7E7
:1084D0006046E3E76146F7E76046A3E76346B7E730
:1084E000834206D916B9002108467BE7C6E900E0B9
:1084F000F9E7B3FA83F78FB9834201D3724508D8FD
:10850000BEEB020460EB030301209C461EB9002170
:1085100068E73846FAE7C6E9004CF8E7C7F1200CEF
:10852000BB4022FA0CF41C432EFA0CF120FA0CF397
:10853000B84001434FEA14490EFA07F5B3FBF9F8C6
:108540001FFA84FE09FB18300B0C08FB0EFA43EAF5
:1085500000439A4502FA07F240D9E31808F1FF30C8
:1085600004D29A4502D9A8F102002344A3EB0A03DE
:1085700089B2B3FBF9F809FB183308FB0EFE41EA98
:1085800003418E452CD9611808F1FF3304D28E4582
:1085900002D9A8F10203214443EA0040A0FB02985B
:1085A000A1EB0E014145CE46434602D306D14D45CF
:1085B00004D2B9EB020E68EB04030138002EA6D0FA
:1085C000B5EB0E0261EB030101FA0CFC22FA07F392
:1085D0004CEA0303F940C6E9003198E74046C5E795
:1085E0004346D9E74FF080435722C3F81C25BFF319
:1085F0004F8F0549054BCA6802F4E0621343CB6014
:10860000BFF34F8F00BFFDE700ED00E00400FA0567
:108610002DE9F041224806F023FB224D284607F0C1
:1086200027FE002838D0284607F022FE002833D045
:10863000284607F01DFE044670B32A69A96813682E
:1086400043F0804313600B68174A1E212846984761
:10865000002821DB1548DFF85880164F06F000FB94
:108660000C26AB684FF080415B692846984700288C
:1086700012DB84F0010414F0FF0414BF41463946B4
:108680000D4806F0DBFA4FF48040002106F050F868
:10869000013EE6D1FFF7A6FF0020BDE8F08100BF54
:1086A000570E0400D80A040001000600700E0400F2
:1086B000500E0400530E0400870E0400014B1B688B
:1086C000184700BFB0000020014B1860704700BF82
:1086D000B000002030B585B004460D4610220021C0
:1086E000684608F097F902238DF802302A46044BB9
:1086F00001932146684606F0D3FA05B030BD00BFAD
:10870000BD86030080B505460E461746984606F01E
:108710004BF8034608F086F9DFF81890044649F84C
:108720000030424630463946A84754F8090001F067
:1087300009FC00BF080000002DE9F047058B044646
:108740002807904611D4022905F0070540F0CC8097
:10875000204606F0F7FE78B10138218B042811D8A5
:10876000DFE800F0C2106D85950001290CBF45F0CF
:10877000100545F02005258388F31188BFF36F8F1E
:10878000BDE8F08701F0070AAA4500F0A5800027A0
:10879000B9463E46A368002B00F0BC8041F00801BA
:1087A000218388F31188BFF36F8FA168002900F03F
:1087B000BA800D68002900F0B680D1F804803346F5
:1087C00052462046C047002D76D02B6829461D46CC
:1087D000F0E701F007035A1F012A1BD8002221F0FD
:1087E0000701062B276889B2C4E9002209D13B465C
:1087F00003E0628B013262831B68002BF9D141F0E8
:1088000002012183204606F09DFE00287AD041F027
:10881000200176E0042B0AD121F0070189B22183DF
:10882000204606F08FFE10B141F020012183218BFC
:1088300001F0070AAA454FD00027B946AAE72369E5
:1088400021F0070141F00601062DD3F800902183A5
:108850002DD1B9F1000F3FD041F00801218388F3F9
:108860001188BFF36F8F3A492046C84729E021F0AD
:108870000701236941F0040189B2042DD3F8049063
:108880002183E6D000273E464FF0040A82E721F01C
:108890000701236941F0050189B2052DD3F808903D
:1088A0002183D6D000273E464FF0050A72E7002705
:1088B0003E464FF0060A6DE72B4687E7B9F1000FF9
:1088C000D1D1EFF31188202383F31288BFF36F8F88
:1088D000238B23F008032383258BEA062ED525F06E
:1088E0001003238305F007056669218B002EBFF670
:1088F00070AF00232768C4E9003321F0070141F07D
:1089000001012183218B01F0070AAA454FF00009DC
:108910007FF440AF002F9CD041F00801218388F301
:108920001188BFF36F8F002FC8D03D68394633469A
:108930005246204606F032FE2F46F4E7AB067FF59E
:108940001BAF25F02003238305F0070500E700BFD8
:10895000C9F50300014B036000207047B80C040008
:10896000F0B40C4B0C4E5F6A0C4BB34203D36FF068
:108970008500F0BC70475D68BD4209D31C693CB1FD
:1089800095F802C00579AC4502D12346F0BC1847E2
:108990002433EAE7A0060020FC020020D8020020D1
:1089A0002DE9F047134CDFF85080DFF85090054672
:1089B0000E461746444503D36FF08500BDE8F087A7
:1089C0006268D9F824309A4212D3A36983B19078AF
:1089D0002979884205D13A4631462846BDE8F04714
:1089E00018475279012A03D13A463146284698471A
:1089F0002434DFE7D8020020FC020020A00600207B
:108A00002DE9F0410B4CDFF8308005460E46174645
:108A1000444502D36FF0850009E063690BB9243443
:108A2000F6E73A463146284698470028F7D1BDE890
:108A3000F08100BFD8020020FC02002010B50446DF
:108A400007F0A0F810F1780F00D050B9054A204681
:108A500006F037FFD2F8C43023EA0003C2F8C4306E
:108A6000002010BDA0060020024B00221A605A60B0
:108A7000704700BF5B07002070B50B4B0B4CA34247
:108A800001D3002070BD196A1E7F00220439D5B2BF
:108A9000AE4201D82433F2E7013211F83250854258
:108AA000F5D10120EEE700BFD8020020FC02002033
:108AB00008B509480378C3F341130A3350F823304B
:108AC0003BB100F1080200F110019847C043C00F0C
:108AD00008BD1846FCE700BFA006002004282DE9C9
:108AE000F14FDFF8989004460F4616D001282DD19B
:108AF000DFF88C8098F8B93043B300F0FFFD214DCA
:108B00004D4520D2D5F820B04FF0000A2B7F5FFAF8
:108B10008AF6B34204D82435F2E7FFF7A5FFE7E76A
:108B20000BEBC6060AF1010A307907F02BF8024672
:108B3000307906F0C6FED8F8C430002A23EA0003D4
:108B4000C8F8C430E2DA002388F8B9300D4D4D453D
:108B500008D30B4B1B6A6BB13946204601B0BDE808
:108B6000F04F1847EB681BB13A4621462846984714
:108B70002435ECE701B0BDE8F08F00BFFC02002017
:108B8000A0060020D802002073B5C4B263060D46CB
:108B90008DF8074007D02046FFF76EFF78B10D4BE8
:108BA00093F8BA0058B10B4E204655B102F0A0F828
:108BB000F3691BB10DF1070108209847012002B0AD
:108BC00070BD02F0BDF8F369002BF7D00DF107017D
:108BD0000920F2E7A006002073B586788DF80060C2
:108BE000037942791C4C43EA0223ADF80230C37882
:108BF000304603F003038DF8043006F062FED4F82B
:108C0000C430184205460BD0304600F059FD3046BE
:108C1000FFF714FF07F0A4FC10B9962005F0A6FD9D
:108C2000684602F041F810F1780F03D010B100202F
:108C300002B070BD9DF8000002F0BEF810F1780F90
:108C400001D00028F3D1D4F8C43001202B4384F89C
:108C5000B900C4F8C430EBE7A00600202DE9F047C6
:108C6000A34EB36904460F461546FBB9237803F0BB
:108C70001F03012B00F09D80022B00F0048133BB09
:108C800094F900002A686178002834DA062912D0A5
:108C900008292BD0D9B901231370517096F8C3302D
:108CA0005B0043F00103137002232AE19847002878
:108CB000DCD100200DE06288100A011F01298446E2
:108CC00005D9072803D8716AD2B20C781CB96FF0A5
:108CD0001500BDE8F0874E78664503D19A4200F052
:108CE0000B8101332144F0E70B780AE196F8BA30A2
:108CF0001370012305E101390829E8D801A353F8CD
:108D000021F000BF9D8D0300CF8C0300AB8D0300CD
:108D1000CF8C0300298D0300CF8C0300CF8C030080
:108D2000CF8C0300358D0300A07801F0ABFF002845
:108D3000BFD0CCE76388756A63BBFFF795FE638895
:108D400086F8BA30F369002BB3D06A4903209847FC
:108D5000AFE76B78042B10D0052B11D0022B04D178
:108D60006F796388BB4208BF01202B781D442B78A4
:108D7000002BEED10028AAD0DFE795F80380F4E7B6
:108D80006388BB42F1D1B8F1000FEED12846FFF75E
:108D900023FFEAE7FF270020B846E8E76388012BB6
:108DA00095D1002386F8C33083E76388012B8ED1E9
:108DB000F8E796F8BA30D5F800C0002B87D0756A6E
:108DC000A38894F804E02A46107800283FF47FAF87
:108DD0005178022904D192F80480F04500F2938082
:108DE0000244F1E78CF800208CF80120396060E73C
:108DF000154494E00B2A7FF46AAF00274FF0FF0878
:108E0000C146BA4606E06B78042B0FD0052B21D063
:108E10002B781D442B78002BF5D1F36913B1514603
:108E200007209847002F7FF444AF50E795F8028061
:108E3000A38895F803909845EAD163889945E7D1CE
:108E4000B8F1070F1CD806EB0803AA4683F8BB90BD
:108E50000127DDE7A3884345DAD1A3784B450AD043
:108E6000AF78384600F02CFC3846FFF7E7FDB0FA43
:108E700080F77F09CCE72846FFF7AEFE0746C7E735
:108E8000AA460027C4E794F900206378002A18DA7C
:108E9000002B7FF41CAF24792D6863060AD020468E
:108EA000FFF7EAFD00283FF412AF96F8BA30002B26
:108EB0003FF40DAF2946204601F062FF00236B709E
:108EC000F2E6012B08D0032B7FF401AF6388002B5F
:108ED0007FF4FDAE012103E0618800297FF4F7AE45
:108EE000A088FFF751FE00287FF4E3AEEFE600BF55
:108EF000A00600205A070020022829607FF4F4AE63
:108F00004B883B60D5E694F9000062780028BFF6F4
:108F100071AF002A3FF466AF0A2A7FF4D8AE2A78F0
:108F2000002A3FF4D4AE697804297FF461AFA978B0
:108F30008B427FF45DAF072B96BF9B19002393F8FC
:108F4000BB308CF80030D4E613B5164C237DF3B952
:108F5000E268A168019201AB802006F0C0FC019A92
:108F6000A3681344A360E3689B1AE3606BB962B122
:108F70002369E2889A4208DD94F8C82093FBF2F155
:108F800002FB11330BB90123237502B010BD00237E
:108F90001A4619468020237502B0BDE8104001F042
:108FA00035BF00BFA006002030B585B000230246C3
:108FB0000D460193002858D1002935D108220B46CF
:108FC0000DEB020106F0F7FD002804DA802001F025
:108FD0008FFE05B030BD2A4C029A2260039A62606F
:108FE00004F13802A2609DF90820BDF80E30257505
:108FF000002AC4E903550ADB802B04D9802001F044
:1090000077FE0020E3E713B1C4E90333E1E7FFF79C
:109010004FFD0028DAD0E28823699A42D4BFE2608B
:10902000E360FFF791FFD4E7154CD4E90215002D5A
:1090300001AB04DC06F0BFFD0028CADAC6E72A4609
:1090400006F0B9FD0028D9DB019AA3681344A36098
:10905000E3689B1AE360002BBBD104F13803A360E3
:10906000FFF726FD0028DCD1B0E78028B1D1044B02
:10907000DA68002AD5D11B7D002BD2D1A9E700BF29
:10908000A0060020054B064A9A62064ADA62064AA2
:109090001A63064A58629A6100207047A0060020B1
:1090A0005D8C030061890300018A0300A18903002C
:1090B0002DE9F3410446474D47484FF0FF334FF049
:1090C000FF3204F0A5FD95F8B830002B7BD16B6A18
:1090D00083B142482C62E8616E6A01F0B1FF01F091
:1090E0009FFD041E10DA3C4804F00AFE204602B040
:1090F000BDE8F08100F0BEF8FFF7C4FF6B6A002BFB
:10910000E7D14FF0FF34EEE700F01AFB041EEADB74
:109110007378012B5AD1F379002B57D0002668467B
:1091200085F8C830ADF802308DF804608DF8006025
:1091300001F0BAFD041ED6DB802768468DF800706A
:1091400001F0B2FD041ECEDB2549304601F064FF7C
:10915000041EC8DB2249384601F05EFF041EC2DB54
:10916000204CDFF8848044451AD3002001F024FE0F
:10917000041EB8DBD5F8C430802043F00103C5F8E5
:10918000C43001F019FE041EADDBD5F8C43043F441
:109190008033C5F8C430012385F8B8300024A2E735
:1091A000276A0026227FF3B29A4201D82434DAE7F4
:1091B00007EBC30257F83310107901F02DFF013689
:1091C0000028EFD09DE76FF077048CE76FF015046F
:1091D00089E700BFA006002000020020DD8A03000E
:1091E000A98F0300D8020020FC02002030B51F4BDD
:1091F0008BB005AA03F1100518685968144603C41A
:109200000833AB422246F7D11B782370102200218D
:1092100001A807F0FFFB12220021154807F0FAFB16
:10922000102101A806F0CAFD00281BDD0828B8BFE0
:109230000820093801AB0E491A18002012F8013F26
:109240000AAC04EB131403F00F0328336B44013012
:1092500014F8144C13F8143C0C7008284B7001F1EE
:109260000201EBD102480BB030BD00BF960E0400E6
:10927000F91300202DE9F04F724B93F800B087B03E
:10928000BBF1000F03D0704807B0BDE8F08F6E4C03
:1092900000264FF0011AB0463546B14623783BB957
:1092A0006A4B02349C42F3D1664A01231370EAE709
:1092B0006378052B1BD8DFE803F08E03C38E1D39BE
:1092C000402304A88DF810B0ADF812308DF814B01A
:1092D00006F043FC40B1082304A8ADF8123006F0B4
:1092E0003CFC08B1ADF812B0BDF81230E371237840
:1092F0001C44D3E7E378002BF9D1A3786BB108F1D4
:1093000001085FFA88F8F2E76B689C4207D02435C1
:109310004F4B9D42F8D30020B6E74E4DF8E7AB68BF
:10932000002BECD0414620469847E8E7002DF2D0CC
:1093300000222B7F9A42EED2296AA07801EBC2016B
:109340000B79984201D00132F3E70127E07800F071
:1093500003008DF81400207994F805C040EA0C2031
:10936000ADF8120094F902000028FBB228DA07F1E8
:1093700010004FF0010C0CFA00F010EA0A0F26D191
:1093800043F080008DF8100004A8CDE9021301928B
:1093900006F0E3FBDDE90121039BC0B99DF8102035
:1093A000A27012F0800F18BF10330A7118BFDBB221
:1093B0004FF0010214BF9A40BA404AEA020A96E707
:1093C0000120B84010EA0A0F01D11846DAE7013748
:1093D000102FBBD1B7E7032E1AD1FFF707FF0746BF
:1093E00050B1FEF7A7FF024630B11028A8BF1022E7
:1093F0003946A01C07F000FB23786FF00201E21849
:10940000091B04EB5303D14213D50136F6B26EE7C4
:10941000002EF1D1B9F1000F3FF47DAFA4EB0903A9
:1094200089F80230C3F3072389F8033089F80480F0
:10943000EBE702F801BC13F8010902F8020DE2E7BC
:10944000A14654E7F813002034020020D702002080
:10945000FC020020D802002010B5094B00211A465A
:109460001C78844204D15C6814B102EB811010BDF9
:109470000131042903F14003F2D10020F7E700BFD6
:109480006C0700202DE9F34150F8283C10F82C6CB3
:10949000103304460AD1036950F8202C980736D5BA
:1094A000D2B9590715D5002344F8283C54F8283C74
:1094B00010330BD054E9077554F8148C07F050F8AA
:1094C00000284FD02E48214607F02EF802B0BDE804
:1094D000F08143F00403236154F8241C01AB3046AF
:1094E00006F0FDF910B16FF01503DDE7019A54F8AD
:1094F000243C134444F8243C54F8203C9B1A44F880
:10950000203C54F81C3C134444F81C3CCEE754F86F
:10951000241C01AB304601F0F5FC0028E3D1019D8D
:1095200054F8243C2B4444F8243C54F8203C5B1B66
:1095300044F8203C54F81C3C2B4444F81C3C002DBF
:10954000B1D0304601F082FDB5FBF0F303FB1055BE
:10955000002DA8D154F8203C002BA4D0304601F0B7
:1095600019FDA3E744F8180CA4F1100004F036FC30
:10957000002DABD0424639463046A847A6E700BF8B
:10958000000300204B1E012B73B506460D460FD875
:10959000FFF762FF044668B9012D09D101AB012232
:1095A0000DF10301304601F0ADFC019B002BF5D11C
:1095B00002B070BD06F0D4FF04F12C0108B1012DFA
:1095C00005D1084602B0BDE87040FFF75BBF034815
:1095D00002B0BDE8704006F0A7BF00BF0003002046
:1095E0002DE9F74F064601911546984606F0C2F957
:1095F000044600285BD1EFF3118A202383F31288FD
:10960000BFF36F8FDFF8ACB000220023584604F0A0
:1096100009FC70B9DFF8A090A70109EB8414636816
:1096200013F1100F14D10193584604F0D7FB019B9E
:1096300006E00134042C0BF1400BE5D16FF00B0375
:109640008AF31188BFF36F8F184603B0BDE8F08F1F
:10965000019B2061C4E902350C9B63610D9BA361F2
:1096600030466FF00F0309F80760C4F83C80636070
:1096700001F0ECFC58B1304601F0E8FCB5FBF0F32A
:1096800003FB10551DB1E36B43F00403E36318F0D3
:10969000020F07D007F12C010848494406F044FFA7
:1096A0000023CDE7304601F075FC0346C8E76FF0B4
:1096B0000F03C9E7880700206C0700200003002083
:1096C00010B5EFF31184202383F31288BFF36F8F5B
:1096D000FFF7C2FE50B14368103307D16FF08B0320
:1096E000436000F12C01044806F01EFF84F311884A
:1096F000BFF36F8F10BD00BF00030020F8B50E4C04
:1097000004252027EFF3118687F31288BFF36F8FAC
:109710006368103307D16FF08B030848636004F16E
:109720002C0106F001FF86F31188BFF36F8F013D16
:1097300004F14004E6D1F8BD6C07002000030020CE
:1097400070B50A4C0A4E00253146204606F0D0FE80
:109750000122A4F110001146013506F08DFE042D02
:1097600004F14004F0D1002070BD00BF9807002034
:109770008594030070B504460E46017915481546D8
:1097800006F0D4F810B394F900206378002A16DBB1
:10979000202B04D0222B0ED06FF085000AE02B681E
:1097A0001A6840F8102C9A8820F80C2C9B7900F845
:1097B0000A3C002070BD638800F8093CF9E7212BC2
:1097C000EAD11038072328603360F2E76FF0120007
:1097D000F0E700BF6C08002008B50146034806F01A
:1097E000B3F810B1012300F8073C08BD6C08002055
:1097F0000169012381F84B300B6833B191F849308E
:109800001BB10248083106F08FBE704700030020EC
:109810000169012381F84A300B6833B191F848306F
:109820001BB10248083106F07FBE704700030020DC
:1098300070B5012382F8483013680D4614463BB1D9
:1098400092F84A3023B10E4802F1080106F06CFE8E
:10985000D4F890301A699B689A4205D17DB904F119
:10986000180140F6CD4204E004F11801002DF8D0B3
:109870000022BDE870400248002304F033BC70BDF4
:109880000003002070B50569EFF31186202383F3F0
:109890001288BFF36F8FD5F8900005F09DFF044646
:1098A00086F31188BFF36F8F30B104480022002384
:1098B00005F1180104F016FC204670BD00030020DD
:1098C0000D4A03460021A0F848101068C3F8940020
:1098D00090889279A3F8980083F89A2083F89C10D6
:1098E00083F89B10A3F89E1083F8A010402203F188
:1098F0004C0007F08FB800BFA80C0400F0B5D0F8FA
:109900008C305B681B6A1F7D85B00446384606F0C4
:1099100031F80646F8B994F88630E3B1A06F4FF4F9
:10992000806203A905F077FF0546A0B18306A4F184
:10993000180308BF00F1FF3584F830600193074B2E
:10994000039900932A4602233846FFF749FEA06F89
:10995000294605F080FF05B0F0BD00BF3198030037
:1099600010B504690023C4F8A8300C4BC4F8A40057
:10997000596804F1A80269B9C3E9002204F108009A
:10998000074906F0B5FD04F11800064906F0DCFDB4
:10999000002010BD0A605A60F0E700BF6C0800208C
:1099A0009FF90300FD98030073B504698DF8071053
:1099B000002384F848302025EFF3118685F31288C0
:1099C000BFF36F8F0122D4F890000DF1070105F06D
:1099D00003FF86F31188BFF36F8F01280AD006F0CA
:1099E000BFFD10B994F8A1306BB9094B1A780AB9C8
:1099F00001221A702122002304F11801054804F005
:109A000071FB02B070BD0021212004F091FED3E76C
:109A10000B1400200003002037B514460A1E05462B
:109A200020DDD4F88C0004F14C0105F0D5FE0123B3
:109A300084F8493023683BB194F84B3023B1114886
:109A400004F1080106F070FDD4F88C104B684A69E7
:109A50009A1ACB699B1A3F2B04D8012384F8A030B3
:109A600003B030BD94F89E30002BF9D0064B009324
:109A700001940123402204F14C012846FFF7B0FD78
:109A8000EEE700BF00030020199A0300F7B50D466A
:109A900001461D4805F03EFF044610B30646691E08
:109AA00056F8A4395F6805291BD8DFE801F01C1AB5
:109AB000031C222610F8061C99B9012300F8063C65
:109AC0003B6A3246187BFFF7A7FF14F85C2C42B9BB
:109AD0003B6A187D0D4B0093019602231146FFF758
:109AE0007FFD03B0F0BD304603B0BDE8F040FFF7A6
:109AF000E7BE012304F8053CF3E710F8053C002B12
:109B0000EFD00023F6E700BF6C0800203198030077
:109B100037B5094D0949002400944FF0FF334FF445
:109B20008062284604F0A0FA0549284606F01EFD8A
:109B3000204603B030BD00BF0003002040140020C9
:109B4000B40E040030BFFFF7FDBF00BF2DE9F041A8
:109B50000B4EDFF8308006EB0807CC1B054632467B
:109B60000949204606F048FFA01942460021083C5A
:109B700006F050FF2C6707F10800BDE8F08100BF38
:109B80000000000004000000940C0400074A9368E1
:109B900093F90E10002907DB526993421FBF044A54
:109BA000536843F080535360704700BFC0130020D8
:109BB00000ED00E070B5264B15469A6A12F0100FC2
:109BC0009A6A14BF1124102412F0080F9A6A18BF61
:109BD0001224920706460AD5586B9A6A140634D5A1
:109BE00019B19A6A22F080029A62132401E06FF0A0
:109BF0001500174B9A6A12F0010F9A6A18BF1424C5
:109C000012F0200F9A6A18BF1524D20602D49B6A5C
:109C10009B070AD50E4B5B68190506D5314600F047
:109C20008DFA10B180F309880224094B9A6A9206D2
:109C300042BF5A6A22F400525A629A6A42F0FF0204
:109C40009A6200232B70204670BD6FF01500CCE7A0
:109C500000ED00E0134B9A6A12F0007F9A6A14BF7D
:109C60001E201D2012F0807F9A6A18BF1F2012F458
:109C7000002F9A6A18BF212012F4802F9A6A18BF09
:109C8000222012F4003F9A6A18BF232012F4803F6A
:109C90009A6A6FEA02426FEA12429A6218BF24205F
:109CA000704700BF00ED00E010B5194B0246986AFE
:109CB0009C6A10F4805F14BF1720162014F4006F04
:109CC0009C6A18BF1820A40509D5986B986A0004EF
:109CD00004D51AB19A6A22F400429A6219200C4BF8
:109CE0009A6A12F4806F9A6A18BF1A20D2050CD4AF
:109CF0009B6A13F4005F18BF1C20054A936A43F463
:109D00007F43936200230B7010BD1B20F5E700BF5B
:109D100000ED00E0F0B5484B5B688BB00446C3F340
:109D20000803002585F31188BFF36F8F02F07F4091
:109D3000B0F17F4F11D102F00C0008280DD01007B0
:109D40004CBF0C4601250022033B8DF80720032B56
:109D500005D8DFE803F0246367602C46F3E70023AF
:109D60009DF80720CAB902AE04F120072068616897
:109D7000324603C20834BC421646F7D1099A002D78
:109D800054D0C2F3080121B96FEA52226FEA42228D
:109D9000099202A9184605F07CFE0BB0F0BD264BD7
:109DA000DA6A9107DBD4DA6A002AD8DBDA6A520071
:109DB000D5D55A69A16942F480725A61BFF34F8FB9
:109DC000BFF36F8F5A6931F8021C22F480725A6116
:109DD000BFF34F8FBFF36F8F4DF6027291420AD0DF
:109DE0009A6AD2B24AB10DF1070201212046FFF76B
:109DF000E1FE0346B4E72368B2E79A6A12F47F4FA4
:109E000005D00DF107010120FFF74EFFF1E79B6A36
:109E1000B3F5803FA3D3FFF71DFFEAE70DF107027B
:109E20000021E3E70DF107010020EDE722F4FF72C6
:109E300022F00102ACE700BF00ED00E0044B5A69DC
:109E400042F010025A615A6922F008025A617047C2
:109E500000ED00E0EFF30880EFF3098101B57246F1
:109E6000FFF758FF01BD00BF002080F31488BFF347
:109E70006F8F02F07BFE00200D490860BFF34F8F0B
:109E80000C4880F3088800F02BF8202080F311881C
:109E900009484FF40461401880F30988EFF31480F7
:109EA0000221084380F31488BFF36F8F00F00EF98E
:109EB00094ED00E0802A0020C01C00200749D1F862
:109EC00090200023C2F307221846934200DB70471C
:109ED000C1F89830C1F8A0000133F6E700ED00E0CA
:109EE00008B572B6002383F31388FFF7E7FF144B1E
:109EF0004FF0FF32C3F88020C3F88420C3F88820D5
:109F0000C3F88C20C3F89020C3F89420C3F898209D
:109F1000C3F89C20C3F88021C3F88421C3F88821AA
:109F2000C3F88C21C3F89021C3F89421C3F8982179
:109F3000C3F89C2162B6BFF34F8FBFF36F8F08BD8C
:109F400000E100E0084B9B6883420BD1EFF30583EF
:109F500043B1064B5A6842F080525A605A6A22F462
:109F600000425A6206F0D7BBC013002000ED00E0AB
:109F7000094A93686FF00A019967084958674B6866
:109F800043F080534B60002383F31188BFF36F8F3E
:109F90009368986F704700BFC013002000ED00E089
:109FA00010B50446EFF31183202383F31288BFF327
:109FB0006F8F0A4B58699860094B4FF000625A60E6
:109FC000084B026F1A600022436F426783F31188C7
:109FD000BFF36F8F00F01AF9204610BDC0130020A8
:109FE00000ED00E0740800200B498A684FF0300053
:109FF0001044EFF3098C80E8F01F74467046FFF7B9
:10A00000CFFFA64604498A6802F1300090E8F01FAD
:10A010008CF3098870470000C01300201EF0040F65
:10A020000CBFEFF30880EFF30980816911F8021C7F
:10A030000229FFD001B505F032FD01BD40B2002874
:10A0400007DB044A4109012300F01F00834042F866
:10A050002130704700E100E040B200280CDB4309EA
:10A06000064900F01F0020330122824041F82320DE
:10A07000BFF34F8FBFF36F8F704700BF00E100E069
:10A08000054B420900F01F0053F82220012303FA78
:10A0900000F01040704700BF00E100E040B200282F
:10A0A000A8BF00F1604001F10101B8BF064B4FEAC3
:10A0B0004111ACBF00F5614000F00F00C9B2B4BF60
:10A0C000195480F80013704714ED00E00B4A08B5EE
:10A0D0000B4B22F07F029A60BFF34F8FBFF36F8F5D
:10A0E000D3F8882022F47002C3F8882003F09EFC85
:10A0F00004F0F8FB00F060F803F0DCFC00820300E1
:10A1000000ED00E042F8203C009B42F81C3C0A496C
:10A11000019B42F8183C029B42F8143C21F00101DB
:10A120004FF0807342F8043C42F8081C0023203AA8
:10A1300002654367704700BF05870300094A03466D
:10A14000906870B113F1160F006E05D0A0F14002B7
:10A150009A4205D8834203D2814228BF002070472B
:10A1600000207047C013002008B515460B4A0C4B61
:10A170009060026F1A600E4600F048F82C4686F395
:10A1800009884FF00000074B984720464FF0000128
:10A190004FF000024FF00003034C2047C013002093
:10A1A00074080020BDFA030005870300014B10224C
:10A1B0001A61704700ED00E0044800232021C21816
:10A1C0000133302B82F80013F9D1704700E100E031
:10A1D00008B5EFF30583064A103B02EBC30152F8C2
:10A1E000330049688847BDE80840FFF7CFBC00BF8F
:10A1F000140B0400024B034A0348012100F076B817
:10A200000000042000000020FC0C0400026E054B3E
:10A21000403A1A60044A4021C3E90112184601215C
:10A2200000F06EB87808002000000B15084AC2F84C
:10A2300098000B6823F01F03034343F01003C2F898
:10A240009C308B6843F00103C2F8A030704700BF18
:10A2500000ED00E02DE9F043DFF8608085B00E46A8
:10A260001F4604464FF00009B14523DA6068D8B1B3
:10A270003FB1411E08421BD11F2819D9236819423A
:10A2800016D12368019305F03CFCA36803430393B4
:10A29000D8F89050C5F30725D0B2013DA84207D8A1
:10A2A00001A9FFF7C3FF421C09F101090C34DBE7E8
:10A2B0006FF01502104605B0BDE8F08300ED00E038
:10A2C000044B0522C3F89420BFF34F8FBFF36F8F69
:10A2D000704700BF00ED00E0BFF35F8F024B00222C
:10A2E000C3F89420704700BF00ED00E010B5034CA8
:10A2F00001232278FFF7AEFF207010BD0C14002060
:10A3000008B50B4A00231278FFF7A4FF10F1160FCF
:10A3100007D0084A0021D2F89030C3F307239842AF
:10A3200000DB08BDC2F89800C2F8A0100130F2E7C7
:10A330000C14002000ED00E02DE9F043534B544C89
:10A34000D3F890302568C3F307239D4285B000F20F
:10A350009A80FFF7C1FF00200C2685421AD14D4C90
:10A360004D4F25706846FEF7F5FADFF82081DFF8DB
:10A370002C9106460025AE4213D123784349002094
:10A38000D1F89020C2F30722934276DBFFF798FFC3
:10A39000002042E0616806FB0011FFF747FF013033
:10A3A000DBE7009800EB05114FEA051CCB683B404A
:10A3B000B3F5000F48D00AD8B3F5001F30D0B3F57D
:10A3C000800F36D0B3F5801F10D00135D3E7B3F13D
:10A3D000807F42D0B3F1007FF7D150F80C3088680D
:10A3E0004A6805F08EFB40F4802009E050F80C30FC
:10A3F00088684A6805F085FB40F0885040F43020BA
:10A40000CDE901230390D8F890302078C3F30723D7
:10A41000013B98422AD96FF0150005B0BDE8F083E2
:10A4200050F80C3088684A6805F06BFB40EA090078
:10A43000E6E750F80C3088684A6805F062FB40F0A7
:10A44000E06040F40030DBE750F80C3088684A6880
:10A4500005F057FB40F08270D2E750F80C30886866
:10A460004A6805F04EFB40F08870C9E701A9FFF784
:10A47000DDFE237801332370A7E7C1F89830C1F8D7
:10A48000A00001337CE74FF0FF30C6E700ED00E0AD
:10A49000080D04000C1400200000F0FF000008115B
:10A4A00008B5024B1B689847002008BD84080020AF
:10A4B000034B044A1860937843F00203937070478B
:10A4C000840800200C01002008B50649064821F048
:10A4D0000701C1F1005202F5802204F0CCFF0020F8
:10A4E00008BD00BF87390020880800200E4A0123DC
:10A4F000C2F840354FF080424FF08051C2F87835B5
:10A50000D1F83001082808D1D1F83411052904D830
:10A510000648415C09B1C2F838364FF08043012249
:10A52000C3F880250020704700E00140CC0E0400F5
:10A5300020B1034B800143F001031847704700BF6F
:10A54000B00C0400020600F07F0312D5082B05D1E1
:10A55000010700F00F0306D50E48704710F0780F82
:10A5600012D100F00F034C2000EB43100A4B1844AB
:10A570007047082B05D1020700F00F0306D50748E6
:10A58000704710F0780FF6D000207047044800EBB9
:10A5900043107047E009002094080020000B0020C1
:10A5A000000A00200149024805F0BEBFBC08002097
:10A5B000A00300200146014805F053BF24020020FB
:10A5C00002480022002303F0D7BB00BF2402002072
:10A5D00013B5124800F0B6FE114B98421AD111483B
:10A5E00003F0EEF80024104803F030F90F4910484A
:10A5F00000944FF0FF334FF4806203F035FD0D49B6
:10A600000B4805F0B3FF0C480C4905F071FF2046DC
:10A6100002B010BD6FF00400FAE700BF25A80300E8
:10A620000000AD0BE00E04002C0D0400801800208B
:10A63000A0030020D20E0400BC08002041A90300A2
:10A6400010B50E49BFF35B8F002351E8002F012A9C
:10A6500003D141E800300028F7D1BFF35B8F0CD164
:10A6600051F8044C1439204605F049F8783004D1EB
:10A670002046BDE8104005F01EB810BDB40800200B
:10A6800038B5002464F07F00C0B2FFF75BFF0134EF
:10A6900005F04CFA082CF5D10E4D0024E0B2FFF77E
:10A6A00051FF036903B90561013405F03FFA082C35
:10A6B00005F14005F2D1084805F038FA074BD3F808
:10A6C0007C2212B9064AC3F87C22064805F02EFA0D
:10A6D000002038BD240F0020E0090020940800204D
:10A6E000240B0020000B002010B5054CFFF768FF7D
:10A6F00020B14168204605F008FEF7E710BD00BF15
:10A70000E401002007B500230E48002201A903F050
:10A7100051FA90B1FFF7E8FF0A480022002301A98F
:10A7200003F048FA38B90198042340600374FFF736
:10A7300041FFFFF737FF002001E00198406003B0C0
:10A740005DF804FBE4010020022810B511D8094B84
:10A750001C5CFFF7D7FF60B1002202740472FFF7A0
:10A7600029FF054B93F824301BB1BDE81040FFF7DB
:10A7700019BF10BDDD0E040094080020F8B58778DD
:10A7800006463846FFF7DEFE3B06F578044612D54E
:10A79000002D43D1FFF7B6FF034600283ED001222B
:10A7A000A5770274032202739C60FFF703FFBDE8E4
:10A7B000F840FFF7F7BE4DB1012D2FD1FFF7A2FFF3
:10A7C000034658B3657705740573EDE7FFF79AFF05
:10A7D00020B3B278124B12F0800F02F0080111D0B2
:10A7E00041B1D3F8A836E360012303740223037355
:10A7F0008460DAE702F00F02142101FB0233D3F880
:10A800000836F0E711B1D3F8A837ECE702F00F02F1
:10A81000142101FB0233D3F80837E4E7F8BD00BF89
:10A8200000700240F0B5064689B01422002103A84A
:10A8300006F0F0F83378013B052B21D8DFE803F070
:10A840007A0314146A1603238DF814300024FFF7DA
:10A8500059FF0346A0B1047400F10802DDE90501C7
:10A8600082E8030018461DE00423EDE7B778384678
:10A87000FFF768FE837A044623B1013B022B43D9DC
:10A8800009B0F0BD3B06F57813D5002DF8D1FFF7E0
:10A8900039FF03460028F3D00122A5770274032272
:10A8A00002739C60FFF786FE09B0BDE8F040FFF739
:10A8B00079BE55B1012DE3D1FFF724FF03460028EF
:10A8C000DED0657705740573EBE7FFF71BFF0746DE
:10A8D0000028D5D00123037402230373846004F19C
:10A8E0000C01B07805F083F9134AE168B2F88C32B4
:10A8F0008B4206D95B1AA2F88C3201F06DF838460B
:10A90000D0E7A2F88C52FAE7304609B0BDE8F04033
:10A91000FFF734BF01A801F03DF89DF80530052B85
:10A9200004D19DF8043013F0600FA9D0034B0593B8
:10A9300001248CE702248AE794080020000A002002
:10A940002DE9F043A64CDFF89C9285B08046FFF7D6
:10A9500037FE074610B905B0BDE8F08394F82530FE
:10A960003A7C3BB9002A00F0868079689D4805F062
:10A97000CCFCECE7042A42D8DFE812F07D000500A9
:10A980000001160140013B7BBD68032B37D8DFE88F
:10A9900003F0023D5A5F6E69934B00223260726091
:10A9A000D3F880143170D3F884147170D3F88814FC
:10A9B000D3F88C0441EA00217180D3F89014D3F8C5
:10A9C000940441EA0021B180D3F89814D3F89C3460
:10A9D00041EA0323F3800823EB6030687168834BFE
:10A9E00003C311462B68687A984796F90030002B0C
:10A9F00008DBF38833B1A4F88C3200F0EDFF7968FE
:10AA00004846B4E70023A4F88C32F8E76B7F002BAC
:10AA1000F5D02B7F002BF2D000266E774FF0FF325F
:10AA200073482E774FF0FF3305F093F86B6901936D
:10AA30006B68CDE9023601A9687A00F0D9FC6C4850
:10AA400005F089F8DBE72B680121687A9847D6E79B
:10AA5000AB7A6BB9EB7F5BB965484FF0FF324FF0D3
:10AA6000FF3305F076F800F0BDFF614805F073F89C
:10AA70002B680221E9E73A7A042AC0D8DFE802F01D
:10AA800059032367730000F02BFC05460028B6D15C
:10AA900000F066FBBFF35B8F5649012351E8002F9E
:10AAA000002A03D141E800300028F7D1BFF35B8FC3
:10AAB000A5D141F8085C41F8105CE0696361143984
:10AAC00004F0A2FD9BE7002565F07F00C0B2FFF710
:10AAD00039FD037A13B1407A01F0E8F80135082D09
:10AAE000F2D194F854311BB194F8550101F0DEF81D
:10AAF0000025E8B2FFF726FD037A13B1407A01F092
:10AB0000D5F80135082DF4D194F874321BB194F8BE
:10AB1000750201F0CBF8002000F0C6FB012384F899
:10AB200025302368002B3FF46AAF002102209847AC
:10AB300065E7002584F8255001F01EF8FFF780FD39
:10AB40002368002B3FF45BAF29460420EFE7002B7E
:10AB50003FF455AF00F0CEFB2368002B3FF44FAF1E
:10AB600000210520E3E72268002A3FF448AF002BCC
:10AB70003FF445AF00210620904740E708F110055B
:10AB80004FF0FF334FF0FF32284604F0E2FFFFF7AB
:10AB900077FD284604F0DFFF58F8283C002B3FF4EF
:10ABA0002EAF00210120C2E794F874327BB1012559
:10ABB00084F8895284F88852FFF7A4FD38B10E4A10
:10ABC000057405738260FFF7F5FCFFF7EBFC58F89E
:10ABD000283C002B3FF413AF00210A20A7E700BF59
:10ABE00094080020E4010020007002409808002032
:10ABF000CC080020B4080020000B002005F025FB45
:10AC000000F0BAFF00F0A2FAFFF76EFDFFF738FD83
:10AC100005F014FB014800F095FBF0E625A80300C1
:10AC200038B5164D95F824402CBB05F1380005F0D9
:10AC3000A4FB204601F08CF922460121E86127207F
:10AC4000FFF72CFA05F0FAFAFFF71AFD044610B9DF
:10AC5000012385F824300A4B1B680BB1FFF7A2FCD7
:10AC60004FF08043D3F83834DB0702D50020FFF7DC
:10AC70006BFD204638BD0024FBE700BF9408002090
:10AC800024020020074B93F824203AB193F8253092
:10AC9000002B14BF00206FF0120070476FF01200FD
:10ACA000704700BF9408002038B5104B93F824304B
:10ACB0000446C3B105782846FFF744FC10B96FF08D
:10ACC000150038BD4572237983726388436020780C
:10ACD000618810F0080F02D14B1E0B42EFD104F037
:10ACE00081FF0020EDE76FF01200EAE794080020F2
:10ACF00038B5124B93F824200546CAB193F8253095
:10AD0000B3B1FFF71FFC0446A8B1837A012B12D020
:10AD100007D9023B012B07D96369A3610020E060DA
:10AD200038BD00F065FEF7E7284600F007FEF3E7C0
:10AD30006FF01200F4E76FF01500F1E794080020BF
:10AD400038B50E4B93F82420054682B193F8253090
:10AD50006BB1FFF7F7FB68B115F008040AD128467C
:10AD600000F00EFE284600F0D9FF204638BD6FF0F7
:10AD70001200FBE76FF01500F8E700BF9408002011
:10AD800038B50C4B93F8242005460C4662B193F875
:10AD900025304BB1FFF7D6FB48B144B1284600F04F
:10ADA000D5FD2070002038BD6FF01200FBE76FF07A
:10ADB0001500F8E79408002070B5134E96F824307B
:10ADC0000446C3B1FFF7BEFB0546B8B1230705D45F
:10ADD000204600F0D5FD204600F0A0FF2B7A83B975
:10ADE00001232B7296F825300BB9002070BD204648
:10ADF00000F05CFFF9E76FF01200F7E76FF0150065
:10AE0000F4E76FF07700F1E7940800202DE9F043B4
:10AE1000DFF8E4801E4698F8243085B0074689465E
:10AE20001546002B61D098F82530002B5DD0030625
:10AE30005ED5FFF787FB0446002859D0037A002B24
:10AE400056D04FF0FF334FF0FF3208F1380004F0D6
:10AE500080FEA37F4BB108F1380004F07CFE6FF058
:10AE60000A04204605B0BDE8F083A37AC5B13BB320
:10AE70000123A3774FF0000801A93846CDE90195D9
:10AE8000CDF80C8000F0B4FA1C4B984229D084F81D
:10AE90001E801EBB6FF00404194804F05CFEE0E75E
:10AEA000E27F02B1E577002BE2D100F0A7FD8742F7
:10AEB000DED000F097FD124804F04DFE0024D0E7EC
:10AEC000B8F80A309D42F0D26268B5FBF2F302FB9B
:10AED0001353002BE9D10123E377E6E7C6F800809E
:10AEE000D8E706B135600024D6E76FF01204B8E762
:10AEF0006FF01504B5E700BF940800200000AD0B0B
:10AF0000CC0800202DE9F0411D46204B174693F850
:10AF100024200E46002A33D093F8253083B303064D
:10AF200031D401B97FBBFFF70DFB044658B3037A58
:10AF30004BB34FF0FF3316484FF0FF3204F009FED9
:10AF4000E368BB42984628BFB84646B93FB905B149
:10AF50002B600F4804F0FFFD0020BDE8F081A169DF
:10AF60004246304605F048FDA3694344A361E368C7
:10AF7000A3EB0803E360002DEBD0C5F80080E8E701
:10AF80006FF01200E9E76FF01500E6E79408002083
:10AF9000CC08002070B51E4D95F82420034682B3DE
:10AFA00095F825206AB31B062ED4FFF7CBFA04468A
:10AFB00050B3037A43B34FF0FF334FF0FF3205F144
:10AFC000380004F0C6FDE368B3B90126636926774B
:10AFD000A361637F83B1FFF795FB30B905F13800BA
:10AFE00004F0B9FD6FF00B0070BD06748460067349
:10AFF000FFF7E0FAFFF7D6FA064804F0ACFD0020B0
:10B00000F2E76FF01200EFE76FF01500ECE700BF1A
:10B0100094080020CC08002010B5084B93F8243089
:10B020000C462BB1FFF78EFA28B10460002010BD4A
:10B030006FF01200FBE76FF01500F8E794080020AE
:10B04000014B1860704700BF9408002008B5074BFB
:10B0500093F8243023B1FFF775FA20B1406808BD9A
:10B060006FF01200FBE76FF01500F8E7940800207E
:10B070004FF08053D3F83021082A06D1D3F8343169
:10B08000052B04D8034AD05C70470020704701208C
:10B09000704700BFE10E0400064B10F0800FA3F1D3
:10B0A000D80208BF134600F00F00182202FB003040
:10B0B000704700BF3C120020EFF31180202383F380
:10B0C0001288BFF36F8F0A4BD3F8001C032261B9BB
:10B0D00049F27531C3F8001CC3F8142DC3F8001CE5
:10B0E00080F31188BFF36F8F7047C3F8142DF7E713
:10B0F00000E00640EFF31180202383F31288BFF3B2
:10B100006F8F0A4BD3F8001C61B949F27532C3F84E
:10B11000002CC3F8141DC3F8002C80F31188BFF372
:10B120006F8F70470022C3F8142DF6E700E0064049
:10B130004FF08053D3F83031082B02BF024B00226E
:10B14000C3F81C2C704700BF00700240024A002365
:10B150001360024A137070471C1300201114002062
:10B1600008B54A4B4FF40062C3F80024FFF780FF94
:10B1700008B1FFF7A1FF4FF08053D3F83031082B0F
:10B1800018D1EFF31180202383F31288BFF36F8F60
:10B190003F4BD3F8001CC02200296ED149F2753113
:10B1A000C3F8001CC3F8142CC3F8001C80F31188EA
:10B1B000BFF36F8F354B0122C3F80025D3F800246D
:10B1C0001205FBD54FF40062C3F800244FF0805302
:10B1D000D3F83031082B17D1EFF31180202383F3FC
:10B1E0001288BFF36F8F2A4BD3F8001C002947D178
:10B1F00049F27532C3F8002CC3F8141CC3F8002CB4
:10B2000080F31188BFF36F8FFFF732FF30B1FFF784
:10B2100071FFFFF72DFF08B1FFF74EFF4FF080538E
:10B22000D3F83031082B194B0AD140F2E372C3F83E
:10B2300000284022C3F80428BFF36F8FBFF34F8F5D
:10B240008022C3F81C250122C3F83025114B40F29F
:10B25000FF121A60104B00211960104B1970FFF794
:10B2600067FF0F4B19700F4B02221A70FFF700FF98
:10B2700050B1BDE80840FFF73DBFC3F8142C95E777
:10B280000022C3F8142CBBE708BD00BF00700240C9
:10B2900000E0064018130020141300200D140020B5
:10B2A0000F14002011140020094B002210B51A7051
:10B2B000084A094B094C002808BF1346C4F800335C
:10B2C0002720FEF7BBFE0123C4F8043510BD00BFE4
:10B2D00010140020FDFFDF01FDFFFF0100700240A0
:10B2E000034B1878012894BF00200120704700BF4D
:10B2F0001114002010B5EFF31181202383F312887D
:10B30000BFF36F8F0D4B1B7803F0FF0083B10C4B25
:10B31000D3F8002412F400720AD10124C3F82C459A
:10B32000D3F82C45D3F80044A40502D5C3F82C2546
:10B33000002081F31188BFF36F8F10BD101400201F
:10B3400000700240F8B51C4B1C7894BB1B4A10607F
:10B3500001221A7040F2FF17264664F07F0514F0B0
:10B36000080FEDB214BF39464021284604F03AFCDC
:10B370002846FFF791FE0134092C86750673066195
:10B38000EBD1002440F2FF17254614F0080FE6B277
:10B3900014BF39464021304604F024FC3046FFF704
:10B3A0007BFE0134092C857505730561EDD10448D8
:10B3B000F8BD0448FCE700BF111400201C13002056
:10B3C0000000AD0B0500AD0B084B10F0800F00F036
:10B3D0000F0114BFD3F81025D3F8142501238B4097
:10B3E000134214BF01200020704700BF00700240CC
:10B3F0002DE9F8430246EFF31187202383F31288E7
:10B40000BFF36F8F030703D1184B1B78834229D1F9
:10B41000174B184E1C683568104604F0DBFBE443FC
:10B42000A4B24FF001092C4309FA00F814EA080409
:10B430001AD11046FFF730FE80F80C90034607C97A
:10B440001C6183E807009C750B4B0C4845EA080516
:10B4500080223560C3F8042187F31188BFF36F8F12
:10B46000BDE8F8830648F7E70648F5E70F14002023
:10B47000181300201413002000E100E00000AD0BC1
:10B480000A00AD0B0B00AD0B10F0080F074B06D0F8
:10B49000D3F8C00410F4803F18BF0020704700F0BC
:10B4A0000F0000F5947053F82000704700700240C0
:10B4B0002DE9F74FA74BA84ED3F85421DAB100225B
:10B4C000C3F85421D3F80413890214D58DF804204D
:10B4D000D3F82025ADF80620D3F8C034002B33680C
:10B4E00014BF4FF001224FF48072134333609B4B23
:10B4F00001A81B689847974BD3F8604134B10022EC
:10B50000C3F86021D3F86C44C3F86C44D3F8282105
:10B510004AB10022C3F82821914B187804F05AFB55
:10B52000012383401C43DFF83C828F4F98F8005082
:10B5300098F9009015F0080143D1B9F1000F05F01A
:10B540000F032EDA894A52F8230020B342F8231061
:10B550001422534303F1804303F51C33D3F8083618
:10B56000834A117803F001034B401370FFF7E0FDAD
:10B57000804802F033FC2846FFF78EFD837D032BC5
:10B5800037D1284604F026FB012303FA00F03B687C
:10B5900023EA00033B60DFF8C4A101254FF0060950
:10B5A0005DE0754A52F823000028F4D042F82310D9
:10B5B0001422534303F1804303F51C33D3F80837B7
:10B5C000CEE7B9F1000F634B09DBD3F85021002A15
:10B5D000E1D00022C3F85021D3F8A837C0E7D3F850
:10B5E0002C21002AD7D00022C3F82C21D3F8A8366A
:10B5F000B6E7037BDBB9284604F0ECFA012303FA33
:10B6000000F03B68B9F1000F23EA00033B6001DA68
:10B61000882DC0D106238DF8043000238DF8073023
:10B620004E4B8DF806501B6801A89847B3E7002DD4
:10B63000B1D1484B0122DA64ADE794FAA4F0326844
:10B64000B0FA80F005FA00F31A430F28326024EABA
:10B6500003043A6840F39480134200F0A180002C68
:10B66000EBD13C4BD3F800215AB1C3F80041434B16
:10B670001C703B4B1C7001230193384B01A81B68C5
:10B680009847344BD3F85821002A2ED00022C3F813
:10B690005821D3F80044C3F80044E30508D5374BDC
:10B6A00001221A70022301932C4B01A81B689847B2
:10B6B000A50508D5314B00221A7003230193274BAF
:10B6C00001A81B68984760050FD52C4B1A7862B10A
:10B6D00000221A701F4B0122C3F808259A65042323
:10B6E00001931E4B01A81B6898471A4BD3F85C3195
:10B6F00003B3204B9B681BB998F80030590619D04A
:10B70000144B0022C3F85C21D3F88034144A23F090
:10B710007F0313703B6823F001133B60336823F40D
:10B72000803343F001033360052301930B4B01A8E1
:10B730001B6898473A6833681A4207D00D480022C0
:10B74000002302F06FFB002800F09E8003B0BDE8EC
:10B75000F08F00BF00700240181300201C1300205F
:10B760000F1400200E140020141300200871024052
:10B770000D1400201402002030710240101400202B
:10B7800013407FF46CAF60F07F018DF804908DF86A
:10B7900006108DF80730DAF8003001A898475EE708
:10B7A000A0F110018DF804908DF806108DF8075067
:10B7B000F1E719F0012314BF93FAA3F999FAA9F953
:10B7C000B9FA89F9B9F10F0F18D9A9F11005EDB23D
:10B7D0002846FFF761FC04462846FFF755FE6368DC
:10B7E000B4F814C02268984230D81B1A00EB020E3D
:10B7F00011466360C4F800E082462AE049F0800503
:10B800002846FFF749FC4368B0F814A001689A4540
:10B8100028BF9A4601F06043B3F1005F044604D0AC
:10B820004248524605F0E8F84049226863685244AD
:10B830002260A268A3EB0A03D20768B2636032D524
:10B84000BAF1000F31D1002323732EE011464FF0DF
:10B85000000A604524D1003B18BF012312B35045B4
:10B8600020D9012303FA09F32BEA03033B600623E3
:10B870008DF804302E4B8DF8065002221B68A275FD
:10B880008DF8072001A89847D7F800B033681BEA65
:10B8900003098ED1274803B0BDE8F04F02F09EBAED
:10B8A0000023DBE768B2002BCDD04FF08053D3F8F4
:10B8B0003031082B02BF204B8222C3F81C2C336886
:10B8C00088F80050012202FA09F923EA09033360DB
:10B8D000236915F0080F53442361174B17D1002833
:10B8E00005F00F054FF0140000FB0530B5BF03EB6A
:10B8F00085030A35C0F80016C0F80017B5BFC0F8B8
:10B9000004A6C0F804A75A6043F825201EE70028C3
:10B91000B5BFC3F8A016C3F8A017C3F8A4A6C3F810
:10B92000A4A7B4BF5A629A6410E700BF2411002094
:10B930001C1300201402002000700240024B40F44F
:10B940008070C3F81805704700700240030713D4D5
:10B9500000F00F0310F0800F084A0BBF03F5887347
:10B9600003F5847302EB830252F8230008BF50688A
:10B97000003818BF01207047002070470070024057
:10B98000034BC3F80C0540F48070C3F80C057047F6
:10B99000007002400023036043600E4BD3F8802404
:10B9A0000270D3F884244270D3F88824D3F88C141E
:10B9B00042EA01224280D3F89024D3F8941442EA58
:10B9C00001228280D3F89824D3F89C3442EA0323DE
:10B9D000C380704700700240014B0122DA64704757
:10B9E00000700240014B01221A657047007002404E
:10B9F000014B01225A65704700700240014B1878D4
:10BA0000704700BF0F14002010B50246EFF31184F9
:10BA1000202383F31288BFF36F8F04F0DBF80B4908
:10BA2000012303FA00F00B6823EA00030B6012F015
:10BA3000080101BF02F00F02054B02F5947243F8B2
:10BA4000221084F31188BFF36F8F10BD18130020EC
:10BA500000700240F7B50146EFF31185202383F310
:10BA60001288BFF36F8FFFF717FB0646084604F0F6
:10BA7000B1F8012211F0800F02FA00F22D4818D11E
:10BA8000036832EA03040AD00846FFF7BDFF032328
:10BA9000B37585F31188BFF36F8F03B0F0BD2649EE
:10BAA000347323EA020303600B6823EA02030B608A
:10BAB000EDE70B0715D48029204B2FD001F00F04A0
:10BAC00004F2DA346400C3F80048D3F80448D3F829
:10BAD0000478E4B244F002043C43C3F80448D3F8C9
:10BAE0000438154F04683B6864EA030C1CEA020F33
:10BAF000CFD013433B60002333730323B3758DF81A
:10BB000007300F4B8DF8061024EA02040622046069
:10BB10001B688DF8042001A89847BAE740F2B47476
:10BB2000C3F80048D3F80448D3F80478E4B244F0EA
:10BB30000404D1E714130020181300200070024001
:10BB40001C13002038B50446094D4FF0FF324FF06A
:10BB5000FF33284602F066F92046FFF77BFF2846B0
:10BB600002F03CF9034B8022C3F8042138BD00BF2A
:10BB70001402002000E100E0F8B54FF0FF324FF072
:10BB8000FF332B4802F04EF92A4B8022C3F8842160
:10BB90002720FEF775FA98B1274E284B34681B68AA
:10BBA000240C24041C43012764BB254D40F2FF13E1
:10BBB00033602720C5F80445FEF74EFAC5F8004368
:10BBC000204A13788BB11E4B0021C3F808110121C4
:10BBD000C3F80026C3F804165960D3F808110029E9
:10BBE000FBD00021C3F808111170154B0022C3F8D7
:10BBF0000025FFF79DFA0E4802F0F0F8124B0122E3
:10BC00001A70F8BD94FAA4F5B5FA85F50F2D2846FB
:10BC1000C6BFA5F11000C0B240F08000030701D4F8
:10BC2000FFF718FF07FA05F524EA0504BCE700BF93
:10BC30001402002000E100E018130020141300207B
:10BC4000007002400D1400201114002010B50446AD
:10BC50004FF0FF324FF0FF33114802F0E3F8204677
:10BC6000FFF7F8FE04F00F02012393400D4A14F091
:10BC7000800F14BFD2F81015D2F814156FEA030321
:10BC800015BF0B400B40C2F81035C2F814350448FC
:10BC900002F0A4F8044B8022C3F8042110BD00BFB9
:10BCA000140200200070024000E100E070B504467C
:10BCB000FFF78AFB68B904F00F02012514F0800F2A
:10BCC000144B05FA02F205D0D3F810150A43C3F855
:10BCD000102570BDD3F814150A43C3F81425631E4C
:10BCE000062BF6D8EFF31186202383F31288BFF3D7
:10BCF0006F8F2046FFF788FE204603F06BFF064A51
:10BD00001368854023EA0503136086F31188BFF3A7
:10BD10006F8FDEE70070024014130020030610B599
:10BD2000044605D4FFF712FE10B12046FFF76CFE63
:10BD3000014BC3F8184510BD00700240084B70B5A8
:10BD4000C31A0D4607499B10044659430648402232
:10BD500003F06CFF2B4601462046BDE870401847B3
:10BD600034130020B76DDBB6B00A040073B50C4C79
:10BD70000C4A4023041B00930D460B460A49A410AD
:10BD800061430646094803F07DFF011E05DA30468F
:10BD90002B4602B0BDE87040184702B070BD00BF2E
:10BDA00034130020EFFC0300B76DDBB6B00A0400CB
:10BDB00010B5EFF31184202383F31288BFF36F8F44
:10BDC000074A136823F00201DB07116002D4012047
:10BDD00004F0A6F984F31188BFF36F8F10BD00BF84
:10BDE00084130020002270B5012104461046FEF79E
:10BDF00055F90F4801F044F80E4B984215D101F067
:10BE00004FF826690C49304603F0EBFB00280BDBAA
:10BE1000012535642469084904F11C0003F0E1FBA5
:10BE2000002801DBE564002070BD6FF00400FBE733
:10BE300035BF03000000AD0B300D04001FB500221C
:10BE40000123CDE90223094ACDF800D06B46CDF895
:10BE500004D003F045FF002805DB4FF480420023A7
:10BE6000684601F0DFFF05B05DF804FB0DFD03003F
:10BE700030B4104B0C2202FB003301460020D3E902
:10BE80000E529863EFF31180202484F31288BFF3DD
:10BE90006F8F1C6C04F0C00444F002041C6480F337
:10BEA0001188BFF36F8F1DB12B46034830BC184774
:10BEB00030BC704734130020B00A040010B4EFF314
:10BEC0001182202383F31288BFF36F8F1748016814
:10BED00041F002040460C80707D482F31188BFF35D
:10BEE0006F8F012010BC00F0F3BF4FF08041D1F8FC
:10BEF0000C04D1F80C14C907EFD5EFF3118083F3CC
:10BF00001288BFF36F8F0A490B6C03F0C00343F034
:10BF100002030B6480F31188BFF36F8F82F31188E3
:10BF2000BFF36F8F002010BCFFF7A2BF8413002067
:10BF30003413002010B1012804D07047034B1B6C50
:10BF40005B0701D1FFF794BF704700BF3413002097
:10BF5000024AC3B21C2003FB0020704734130020A8
:10BF60002DE9F0413849BFF35B8F0746012251E8C4
:10BF7000003F41E800200028F9D1BFF35B8F33B9BF
:10BF8000324933484B60CB608A6003F03DFB7B1E37
:10BF9000012B2BD8012F07D14FF08043D3F81C344D
:10BFA00003F00303012B21D004F0DAFA0546F8B9B7
:10BFB000284B1B78E3B14FF080430222C3F80823DB
:10BFC0000646DFF894804FF08044D4F81824D4F863
:10BFD0001834D20315D503F00303012B01D0012F30
:10BFE0000FD155B386F31188BFF36F8FBDE8F08191
:10BFF000EFF31186202383F31288BFF36F8F01259F
:10C00000DFE7ADB1304603F06DFDD4F81835002BF5
:10C01000DBD1D4F80421002AD7D0C4F80431D4F8F5
:10C0200004310123C4F81835C8F88031A360CCE787
:10C030000021212002F07CFBE7E74FF08043022241
:10C04000C3F80423D2E700BF3013002020130020E0
:10C05000501300203614002000E100E008B5074826
:10C0600004F006F938B10648FEF722FA0448FCF756
:10C070002BFB002008BD6FF01200FBE7EC0A040068
:10C0800085C003000A2838B5074D044604D1AB68C3
:10C090000D215B6828469847AB6803485B68E1B2AE
:10C0A0009847204638BD00BFEC0A0400F0B5406850
:10C0B000057B01F01F0444EA4514056987B0002D93
:10C0C00064D0B2F5001F00F1100506D121462846C4
:10C0D00004F0A6F8002007B0F0BD01AE0027B2F5CD
:10C0E000800F0197776039D1B3F1007F14BF05232A
:10C0F00004238DF804300023CDE90463039383689F
:10C1000023FA01F111F001011AD1B2F1A07F17D188
:10C1100004F01F03620903F5E0732AD0012A3BD122
:10C120001F4A52F82330DB070AD40DF103063246CA
:10C130002146284601F0AAF91A4B98421CD00296D3
:10C1400003AA2146284601F063F8174B984220D1F4
:10C1500001222146284601F0FDF9BBE7B3F1C06F8B
:10C1600005D0B3F1007F14BF01230223C1E70323ED
:10C17000BFE74FF0A042D4E73146284601F0E4F98A
:10C18000094B9842DBD06FF00B00A4E76FF08500FD
:10C19000A1E76FF015009EE751F82330FFDE00BFE6
:10C1A000000300500400AD0B0000AD0B38B545682E
:10C1B0002B69B3B11035284601F0B6F9044680B9B1
:10C1C0000146284601F07CF9084B98420BD10849FA
:10C1D0002246284601F054F9224605210620FDF7A3
:10C1E0005DFF002038BD6FF00400FBE70000AD0BE1
:10C1F000F5C10300420970B5034602D0012A17D0E9
:10C2000070BD0D4E326951680029F9D003F01F034B
:10C2100001250C689D400029F2D08A682A4002D08E
:10C220004B68304698472CB1236821461C46F2E7FC
:10C23000024EE7E72346F8E7D80A0400C40A0400E0
:10C240002DE9F043466840F20635D006337B87B0CF
:10C2500002EA050554BFC2F34010032001F01F0796
:10C26000B5F5837F144647EA43178DF8030044D0A1
:10C270000FD8062D18D007D8B5B1022D3FD06FF0DA
:10C28000150007B0BDE8F083B5F5807FF7D1012533
:10C290000AE040F20222954233D0B5F5407F32D019
:10C2A000B5F5007FEBD1022522032ED5726801235C
:10C2B0008B40C2F80835326992BB07F01F037F0933
:10C2C0002BD0012F79D13F4A02EB830284F48033D3
:10C2D000D2F80017C3F30043C4F3404444EA4304D4
:10C2E00021F4E16144EA800421F0070144EA0523D6
:10C2F0000B43C2F800370020C3E70725D4E7042525
:10C30000D2E70525D0E70325CEE7630341BF01232C
:10C3100072688B40C2F80C35CDE74FF0A042D3E7EE
:10C3200010360DF102023946304601F0AFF814F430
:10C33000403F80460CD13946304603F06FFF224B18
:10C340009845D8D19DF80210304601F0F7F8D2E7B1
:10C3500001AB4FF0000903AA39463046CDE9043954
:10C36000CDE90199CDF80C9000F052FF164B9842A0
:10C3700085D114F4003315D09DF803308DF80E30BC
:10C3800084F48034C4F300444B4603AA3946304653
:10C390008DF80C508DF80D4000F0F4FF0A4B9842D8
:10C3A000CDD06CE7CDE9043303AA0DF10303394680
:10C3B0003046039300F02CFFF0E703F5E07352F8EA
:10C3C0002330FFDE000300500000AD0B036803F0D4
:10C3D0001F025B09026004D0012B034818BF002034
:10C3E00070474FF0A0407047000300502DE9F04F18
:10C3F000DFF89491DFF894A185B01546834600EBF1
:10C40000810140F2FF18594503D1002005B0BDE875
:10C41000F08FDBF800305E04C3F3C322C3F30804DB
:10C4200000F1AC809B0C19F80270444508BF4FF036
:10C43000FF34222B00F2A580DFE803F012191F223F
:10C44000252B22A3A3A3A33B68A3A3A3A3A3A3A3D6
:10C45000A3A36B818487A3A3A38A9194979A9D0039
:10C46000C5F80C45601C5ED10BF1040BCBE7C5F899
:10C470001445621CF8D000265FE0C5F80845F1E7D6
:10C48000C5F81045F5E7631CC5F80845ECD0002653
:10C4900004E0661CC5F80C45E6D0012603A8039409
:10C4A000FFF794FF039B012202FA03F3C0F80C3557
:10C4B00008E0C5F80845002FDBD1631CD4D0002666
:10C4C00032460627DBF80030019303F400400028D1
:10C4D00018BF002203A8009218BF01260394FFF79B
:10C4E00075FF039C019B009A00EB8400C3F3412C71
:10C4F000D0F800473B0243EA8C03134304EA0A04E2
:10C50000234343EA4603C0F80037ADE7C5F80C45BE
:10C51000D1E7C5F86045601CDBF80030A4D0C3F358
:10C520000043002BB9D003A80394FFF74FFF039BF0
:10C53000012606FA03F3C0F808353246C2E7C5F80B
:10C540006445E8E7C5F86845E5E7C5F86C45E2E706
:10C55000C5F82445621C87D000220126B2E7C5F841
:10C5600028457FE7C5F83045F4E7C5F83445F1E7DD
:10C57000C5F83845EEE7C5F83C4573E76FF01500A0
:10C5800044E76FF0850041E7120F0400F0F8FCFF6C
:10C59000F7B50746002201210220FDF77FFD0220AA
:10C5A000FDF74CFD7D683E692C680021C4F800153C
:10C5B00037602F6901AA384603F014FC00284EDBCF
:10C5C000019B3A6819791868FFF710FF002846DBCD
:10C5D0006B69C4F824356A7E2B7E1343AA7E13430D
:10C5E000C4F86C35AB68D90712D506F1140003F016
:10C5F00095FD1D4B984234D1307D04F10C0204F5B9
:10C60000907103F081FD337D0120984000F0D0FB54
:10C610000823C4F800352B7B53B9C4F81031D4F883
:10C6200010313369C4F834350123C4F83835236038
:10C63000AB68DA075CBF4FF48073C4F80433AB68AF
:10C640005B0744BF4FF48003C4F80433F368C4F8B5
:10C65000443500200123C4F84805A360E36003B01B
:10C66000F0BD6FF00400FAE70000AD0B2DE9F041DA
:10C67000044607690D4603F073FF4FF02008B0B978
:10C680001F4B1B789BB16426606803F085FCF0B9F2
:10C69000012003F037FD013EF6D10021212002F0F8
:10C6A00047F8F0E781F31188BFF36F8FF5E7EFF3F9
:10C6B00011810E4688F31288BFF36F8F606803F014
:10C6C0006BFC80B981F31188BFF36F8FEFE7EFF355
:10C6D00011810E4688F31288BFF36F8F606803F0F4
:10C6E0005BFC0028DED0FB681D70F9680122204643
:10C6F00003F092FB86F31188BFF36F8FBDE8F081E2
:10C700003614002070B5012383400E4ABFF35B8FBF
:10C71000DC4352E8001F01EA040542E80056002EFF
:10C72000F7D1BFF35B8F4FF4803282400648C0F8E8
:10C730000823BFF35F8FBFF36F8F0B4214BF01203D
:10C74000002070BDA41300200010014070B40E49F9
:10C75000D1E90034D01AC31844F1000422F07F4616
:10C76000C1E90034A6F50013B3F5400F09D2074B19
:10C770001B681A0A1B069C19054B42F10005C3E908
:10C78000004570BC02F088B950040020A8130020B6
:10C790005804002011B3BFF35B8F0123104A83407C
:10C7A00052E800CF4CEA030C42E800C10029F7D15F
:10C7B000BFF35B8F0B4A4FF480338340C2F80433DE
:10C7C000094BBFF35B8F1B68BFF35B8FC340DB0775
:10C7D00042BF064B4FF40032C3F80021704700BF40
:10C7E000A413002000100140A013002000E100E08D
:10C7F0000D4B1868010A0006BFF35F8F0B4BD3F88F
:10C800000435181841F10001B3F5801F0AD2084B16
:10C81000D3E90023904271EB030303D210F180703F
:10C8200041F10001704700BFA81300200010014033
:10C83000580400202DE9F04F85B016461F469DF89C
:10C8400040A00446FFF75EFF0190FFF7D1FFB04222
:10C8500071EB070354D23E4B301A67EB010198424B
:10C8600071F100014FD23B4B03EB0413D3E90223D8
:10C870009F4208BF96425ED037494FF4803804F19A
:10C88000500508FA04F8AD00C1F848832046ADB25F
:10C8900003F02BFC26F07F4B05F1804504F5A873CF
:10C8A00005F58835DC464FF003090293029A2CF017
:10C8B0007F4341F82230C1F84483D1F80435274A38
:10C8C0006FF00200C01A604420F07F40904232D9DD
:10C8D000286868B1D1F804350393A3EB0B0020F06E
:10C8E0007F40B0F5000F26D9204603F0FEFB039BE6
:10C8F000BAF1000F07D109EB030C09F10109D5E7E3
:10C90000BAF1000F09D06FF0150520460199FFF725
:10C9100041FF284605B0BDE8F08F0123104ABFF360
:10C920005B8FA34052E8000F184342E80001002942
:10C93000F8D1BFF35B8F07490E98230101EB041276
:10C94000C8500F9B5360C2E902670025DDE700BFB6
:10C95000010080004004002000100140FDFF7F0026
:10C96000A01300207FB51C4C1C4BC4F80833C4F83E
:10C9700048331B4B00254FF0FF304FF0FF31C4F818
:10C980000855C3E902014FF48033C4F80433154B52
:10C9900002264FF400320121C4F804631120C3F8C9
:10C9A00080212A46FDF77AFB1120FDF747FB0E4A4E
:10C9B0000123A360236013600C4B0D4A0093CDE963
:10C9C000015500232846FFF735FF3046FFF7C8FA28
:10C9D000284604B070BD00BF0010014003000F00E6
:10C9E0004004002000E100E0A41300204DC7030034
:10C9F000FFFF7F002DE9F7432F4CD4F8043399074C
:10CA00000BD5D4F8043143B12C4A0023C4F80431C7
:10CA1000D4F80431136801331360D4F80433DA0313
:10CA200029D5BFF35B8F264B53E8002F22F001017D
:10CA300043E800100028F7D1BFF35B8FD30702D47F
:10CA4000D4F84031BBB10025C4F84051D4F840318E
:10CA5000FFF7CEFEEFF31182202383F31288BFF39A
:10CA60006F8F184BD3E90267B042B94106D282F307
:10CA70001188BFF36F8F03B0BDE8F0834FF0FF382C
:10CA80004FF0FF39C3E90289D3E900101D604FF46C
:10CA90008033C4F84833C4F84051D4F8403182F3AD
:10CAA0001188BFF36F8F0029E5D0009032463B46D6
:10CAB00028468847DFE700BF00100140A813002088
:10CAC000A01300204004002030B5431C124C85B058
:10CAD00005D08442A8BF0446012CB8BF0124FFF74B
:10CAE00087FE0E4B0C4DD3E90013401AB0F5000F32
:10CAF00010D22218AA4228BF2A4652184FF000002E
:10CB000007490091CDE9010043F10003FFF792FED0
:10CB100005B030BD2A46F0E7FFFF7F00500400203B
:10CB20004DC7030008B5FFF763FE024B1B68C01A30
:10CB300008BD00BF500400204FF08053D3F83021CF
:10CB4000082A06D1D3F83431052B02D8024AD05C2A
:10CB500070470020704700BF2E0F0400024AD2F831
:10CB60000034002BFBD0704700E0014010B54FF0BF
:10CB70008053D3F83021082A4ED14FF08042002153
:10CB8000C2F80C11C2F81011C2F8381502F5404273
:10CB9000D3F80414C2F82015D3F80814C2F82415E9
:10CBA000D3F80C14C2F82815D3F81014C2F82C15B9
:10CBB000D3F81414C2F83015D3F81814C2F8341589
:10CBC000D3F81C14C2F84015D3F82014C2F8441549
:10CBD000D3F82414C2F84815D3F82814C2F84C1519
:10CBE000D3F82C14C2F85015D3F83014C2F85415E9
:10CBF000D3F83414C2F86015D3F83814C2F86415A9
:10CC0000D3F83C14C2F86815D3F84014C2F86C1578
:10CC1000D3F84434C2F87035FFF78EFF18B13A4BA1
:10CC20003A4AC3F88C26FFF787FF18B1384BFB222E
:10CC3000C3F81825FFF780FF70B14FF080414FF027
:10CC40008053D1F8E42ED3F8583222F00F0203F0CB
:10CC50000F031343C1F8E43EFFF76EFF20B12D4BE5
:10CC60004FF40072C3F840264FF08053D3F83031B0
:10CC7000082B1AD14FF08043D3F80024D20744BFC9
:10CC80006FF00102C3F800244FF08053D3F8343121
:10CC9000052B02D8204AD35C3BB14FF01023D3F8C8
:10CCA00008224FF08043C3F858254FF01023D3F8E3
:10CCB0000022002A03DBD3F80432002B22DA1749C2
:10CCC00001234FF01020C1F804351224FFF746FF6E
:10CCD000C0F80042FFF742FFC0F80442FFF73EFFF2
:10CCE0000023C1F80435FFF739FFBFF34F8F0C491C
:10CCF0000C4BCA6802F4E0621343CB60BFF34F8F62
:10CD000000BFFDE710BD00BF005000404881030098
:10CD100000F0004000900240280F040000E00140B5
:10CD200000ED00E00400FA0530B50468CCB1BFF3B3
:10CD30005B8FB4FA84F3C3F11F03DBB201229A4084
:10CD400024EA020250E8005FA54204D140E8002C2A
:10CD5000BCF1000FF6D1BFF35B8FE6D102480B7038
:10CD600030BD0248FCE700BF0000AD0B0200AD0B78
:10CD700010B50368CB40DB0714D401238B40026855
:10CD8000BFF35B8F43EA020150E8004F944204D1A5
:10CD900040E8001CBCF1000FF6D1BFF35B8FEED171
:10CDA000014810BD0148FCE70000AD0B0400AD0BCD
:10CDB000014BC3F80405704700F00140F7B5044685
:10CDC00018B1012823D003B0F0BD4FF080430222F8
:10CDD000C3F808230122DA60C3F80401D3F8043150
:10CDE000064601238DF8073042F210754FF0804758
:10CDF000D4B1012CE7D1D7F80C3403F48033AEBBA7
:10CE000083B3012003F07EF9013DF4D12AE04FF015
:10CE100080430022C3F808035860C3F80021D3F808
:10CE200000310DF10706DCE7D7F8183403F480333E
:10CE30003EB9002BC7D0012003F064F9013DF3D1C6
:10CE4000C1E7D7F8182402F003023260002BBAD0F1
:10CE50009DF80700012803D103F054F9013DC7D123
:10CE6000012CB0D1054B00225A71ACE7D7F80C2445
:10CE700002F001023270002BEAD1F3E7AC1300207C
:10CE8000044B1A7922B9012218609A80024870472F
:10CE900002487047AC1300200000AD0B0C00AD0B36
:10CEA00008B5094B1B682BB10020FDF7E9F808B95C
:10CEB000FDF7C4F84FF080430022C3F81825034B58
:10CEC00001221A7008BD00BFAC13002034140020EA
:10CED00010B510B1012843D010BD4FF08043D3F8F6
:10CEE0001814D3F81824C80321D502F00303012B2A
:10CEF00004D013B10020FFF761FF00234FF0804200
:10CF00000220C2F8183508224FF4827303F18043DF
:10CF10000021196002F180421C6801241460154A46
:10CF200012680AB34FF08043C3F80403D4E7D3F880
:10CF30001424D107E1D5D3F81C249207DAD40D4A82
:10CF400012681AB10222C3F80423C5E7D3F80421FA
:10CF5000002AFBD00022C3F80421D3F80431BBE738
:10CF600000224FF48073D1E71A68002AFCD01960C0
:10CF70001B68B1E7AC13002010B54FF08043D3F825
:10CF800000216AB10022C3F80021D3F80021012258
:10CF9000C3F80823114B587910B95A711B68984788
:10CFA0004FF08043D3F8042172B10022C3F804216A
:10CFB000D3F80421D3F81824D3F81824920704D105
:10CFC0000122C3F818259A6010BD0222C3F8082375
:10CFD000024BBDE810401B6801201847AC1300202D
:10CFE000036803F01F025B09026004D0012B0348B1
:10CFF00018BF002070474FF0A0407047000300505A
:10D00000034A430900F01F00D35C1844C0B27047C4
:10D01000340F040070B50546FFF7F2FF0C4C0830E2
:10D020000E4634F81030DA0508D5C3F3432304EB79
:10D03000C302284654F8333052689847A3682BB18E
:10D04000E26831462846BDE87040184770BD00BF11
:10D050004801002008B5FFF7D3FF034B083033F831
:10D060001000400B08BD00BF4801002008B5FFF7C5
:10D07000C7FF034B083033F81000C0F3400008BD71
:10D080004801002008B5FFF7BBFF034B083033F819
:10D090001000C0F3401008BD48010020034611F005
:10D0A000010010B5CCB20DD1A207C4F3400012D5D7
:10D0B000094AD2F820055860C2F82005003818BF88
:10D0C000012008E04FF0A041D1F820251A60C1F8F6
:10D0D0002025002AE8D010BD0003005010B5FFF74E
:10D0E0008FFF124A083032F81030D9051CD5C3F32F
:10D0F000432123F4F85322F8103002F10E040020EB
:10D1000034F8023F13F4807F03D0C3F343239942E2
:10D110000AD001303028F3D1002342F831300448DE
:10D12000BDE81040FFF724BE10BD00BF480100203D
:10D13000C0010020F0B50546002004460126074640
:10D140008C420BD1114BD3F87C2132B10022C3F8B1
:10D150007C21D3F87C3140F00040F0BDE3B29B006D
:10D1600003F580729B0806FA03F31D420BD002F10F
:10D17000804202F5C042D2F800C0BCF1000F02D0DC
:10D180001760126818430134DAE700BF00600040FE
:10D19000F7B506460846FFF733FF194F00F10805BB
:10D1A0000C4637F81530DB0727D5304603F012F868
:10D1B0002046FFF767FF40B12046FFF74BFF31687D
:10D1C00000F5A270002341F820302046FFF786FFCB
:10D1D000002301A827F815300194FFF701FF019BF8
:10D1E00000EB8300074BD0F80027134043F0020305
:10D1F000C0F80037044803B0F0BD0448FBE700BFA7
:10D2000048010020F0F8FCFF0000AD0B0400AD0B5E
:10D210002DE9FF41164680460846FFF7F1FE0D4610
:10D220003168044609B32846FFF720FF18B12846A5
:10D23000FFF728FF10BB0023CDE900338DF80E3037
:10D240008DF80F300DF10F020B4628460DF10E013F
:10D2500002F068FF474A04F1080132F8113023F068
:10D26000020343F0010322F81130736863B32846C8
:10D270001F785968FFF7FAFE10B1D1B13E4826E099
:10D280003C4A04F1080032F8103023F02003DB049C
:10D29000DB0C22F8103061B1032FEFD871684968B8
:10D2A00091F800C0D8F80010A7B90CF5A27C41F89D
:10D2B0002C70304A04F1080132F8113023F01C03BD
:10D2C00043EA870322F81130B3684BBB2B4804B004
:10D2D000BDE8F08101EB8C0143EA4C33D1F810E555
:10D2E0002EF0030EC1F810E5D8F8001001EB8C0EFB
:10D2F00043F02003DEF8101522F8103021F44F31EE
:10D3000021F44071CEF810152902DEF8108501F4E1
:10D310007C5141EA074141EA0801CEF81015C8E7FF
:10D32000D3E900672846FFF7D9FE002ECED0114D75
:10D33000D5E90023964203D19F4201D1002209E0A2
:10D340000F480DF10F01FFF7EFFC0C4B9842BED1D7
:10D350009DF80F2045F8326005EBC20308345F608A
:10D3600035F8143043EA422343F4807325F814302F
:10D37000ACE700BF480100200400AD0B0000AD0B7E
:10D38000C00100202DE9F0430C4685B080462046C0
:10D3900011461E46FFF734FE054629B32046FFF727
:10D3A00065FE18B92046FFF76DFE18BB314F05F139
:10D3B000080937F8193013F01C0F02D04B78012BF5
:10D3C00018D001238DF80F300023CDE900134A1C3B
:10D3D0008B1C20460DF10F0102F0A4FE37F8193026
:10D3E00043F0030327F81930002E41D02046FFF701
:10D3F0003DFE18B9204805B0BDE8F08396F800C09E
:10D40000D8F800301B4F0CF5A272002143F822100F
:10D4100005F1080237F8121021F02001C904C90CE7
:10D4200027F8121075781DB3D8F80000B67800EB15
:10D430008C002D04D0F8103523F4991323F4F853FD
:10D44000C0F81035230203F47C5305F4403536054B
:10D45000D0F810E52B4306F4801641EA4C313343F3
:10D4600041F0200143EA0E0327F81210C0F81035EE
:10D470000248C0E7480100200400AD0B0000AD0BDE
:10D48000014BC3E9021270474801002010B508465D
:10D490001446FFF7F7FD50B10846FFF7B1FD054B05
:10D4A000083033F8103004485B0B237010BD03487C
:10D4B000FCE700BF480100200000AD0B0400AD0BED
:10D4C00070B5164D95F8804006462CBB214660226B
:10D4D00005F1100003F09EFA30682E6F21468E424F
:10D4E0000ED10023C0F87C31D0F87C3140F30730F6
:10D4F000FCF7A4FD01230A4885F88030AB6770BDB6
:10D50000CBB29B0003F580727C2B08BF845001F1E5
:10D51000010108BF8358E2E70248F0E74801002014
:10D520000000AD0B0C00AD0B034B93F880000038EE
:10D5300018BF0120704700BF480100200148FFF7D5
:10D5400017BC00BFBC0100200148FFF7EDBB00BFC6
:10D55000BC01002073B503681646D3F80423002AE3
:10D56000A8BF4FF000420546A8BFC3F804230846F1
:10D570000C46FFF787FD00B30846FFF777FD01462D
:10D58000D8B92046FFF766FD04B2A40004F5807206
:10D59000034628688150296882582144D1F8102513
:10D5A00042F00102C1F810252EB12968012202FAC9
:10D5B00003F3C1F8043302B070BD2046FFF720FD2D
:10D5C0000F4B083033F81030C3F38203042B12D012
:10D5D000052B12D001A80194FFF702FD019AD0F8A3
:10D5E0001035D34003F00103991C204602B0BDE87A
:10D5F000704002F0E0BD0321F7E70221F5E700BF2C
:10D60000480100202DE9F04F694BDFF8A881D3F8DD
:10D610000403D8F87010C0B289B040F00040FFF7A2
:10D6200089FD051E2FDAC24600235AF87C1F06A882
:10D63000CDE90633FFF732FD5F4B01930DF1180979
:10D640004FF0000B019A12F8013B0192DA0803F047
:10D6500007031AF8022022FA03F3DA071CD409F1AF
:10D660000409BBF1000F14D0D8F870104FF000403F
:10D67000FFF760FDD8F87C1006A8FFF70FFD002823
:10D68000DAD125F000450124002D79D109B0BDE89B
:10D69000F08F4FF0010BD5E7484B5B440293D9F86C
:10D6A00000100029DBD0029B91FAA1F11C78B1FA9D
:10D6B00081F141EA44142046FFF7A2FC08300594AA
:10D6C00038F81070C808BB0819F80020039301F05F
:10D6D0000701012303FA01F122EA010209F80020FF
:10D6E00005A8FFF77DFC059A039B02F5E072C7F3DE
:10D6F000820650F822205B073746C2F3014224D548
:10D7000020463946D6B2FFF785FC05A80594FFF7F9
:10D7100067FC059B03F5E07350F82330C3F3014326
:10D720009E4207D10021204602F045FD31462046A9
:10D7300002F041FD05A80594FFF752FC059B01226C
:10D7400002FA03F3C0F82035A9E7022A0CD103211D
:10D75000204602F030FD06F00503012BEAD13946E0
:10D760002046FFF757FCE5E702212046039202F02E
:10D7700022FD032EF3D0039A032ADBD1022EEDE71C
:10D7800095FAA5F3B3FA83F304FA03F29B0003F1CD
:10D79000804303F5C04325EA0205D3F81005D3F80A
:10D7A0001015C0F30520C1F30141FFF733FC6BE70F
:10D7B0000060004048010020440F0400440F0400B2
:10D7C00010B5184C237853BB0278C2F3400392077C
:10D7D00012D54FF08053D3F83021082A0BD1D3F85B
:10D7E0003431052B07D8104AD35C23B14FF0804366
:10D7F0000122C3F8382601234FF08042C2F8803559
:10D80000037803F00103C2F878350020FCF738FCF8
:10D8100008B9FCF713FC01230448237010BD044829
:10D82000FCE700BF35140020460F04000000AD0BDC
:10D830000C00AD0B4FF080434FF46072C3F8082327
:10D84000014B00221A607047B413002008B5FFF79F
:10D85000F1FF03680BB1014A136008BDB413002047
:10D8600010B54FF08043D3F80443620707D54FF457
:10D87000847002F0D7FC10B11E4B1B689847A306BA
:10D8800008D54FF48A7002F0CDFC18B11A4B002075
:10D890001B689847600608D54FF48C7002F0C2FCF4
:10D8A00018B1154B01201B689847210608D54FF485
:10D8B0008E7002F0B7FC18B1104B00201B6898471F
:10D8C000E20508D54FF4907002F0ACFC18B10B4B98
:10D8D00001201B689847A3050AD54FF4927002F007
:10D8E000A1FC28B1054BBDE810401B680220184779
:10D8F00010BD00BFBC130020B8130020B4130020DB
:10D9000001460148FFF710BACC01002038B5EFF30B
:10D910001185202383F31288BFF36F8F064B9C6819
:10D9200002F0B9FC85F31188BFF36F8F2046BDE884
:10D930003840FCF707BB00BFC013002038B5094BC7
:10D9400053F82040013053F82050A54200D838BD8C
:10D95000636823B1204602F0A1FC0834F5E7236890
:10D960009847FAE7380E040070B52B4B2B4C2C4D22
:10D97000012286B003201A70FFF7E0FF01F02CF9B6
:10D9800002F0A8FC0420FFF7D9FF2646AE4204F1BE
:10D99000300410D300F00EFE204C224EAC4226D3B1
:10D9A00000F01CFEFAF734FE1F4A137B23F001033C
:10D9B000137306B070BD54F80C3C059354F8103C3A
:10D9C000049354F8143C039354F8183C029354F80D
:10D9D0001C3C019354F8203C009354E90A2354E979
:10D9E0000C0100F0A9FB54F8303C5E65CDE7D4E9AA
:10D9F0000A23B3F1FF3F08BFB2F1FF3F05D052EA5F
:10DA00000301206803D102F0B4FD3034C6E731468B
:10DA1000183000F0C7FFF8E736140020940C04001B
:10DA2000940C0400A1060400E004002008B503489B
:10DA3000034A0021121A02F049FC08BD000300202D
:10DA40003814002070B5002386B00122CDE90423EC
:10DA5000134E144D01930F22CDE9023212491423C3
:10DA600003FB005506EBC01604464FF4C07000FBE4
:10DA700004110E4B00954FF4A072304600F05CFB91
:10DA8000737B0B4AEE6023F0040373734FF404635B
:10DA900004FB033313442C746B6006B070BD00BFED
:10DAA00060040020C013002000250020550304005E
:10DAB000C01C0020BFB50020FFF740FF2C4B83F3B4
:10DAC00008882C4D2C4E6B692C4F43F400736B610E
:10DAD0000024E02385F82230EC772C766C76AC7647
