:020000023000CC
:108000000000000000000000000000000000000070
:108010000000000000000000000000000000000060
:108020000000000000000000000000000000000050
:108030000000000000000000000000000000000040
:108040000000000000000000000000000000000030
:108050000000000000000000000000000000000020
:108060000000000000000000000000000000000010
:108070000000000000000000000000000000000000
:1080800000000000000000000000000000000000F0
:1080900000000000000000000000000000000000E0
:1080A00000000000000000000000000000000000D0
:1080B00000000000000000000000000000000000C0
:1080C00000000000000000000000000000000000B0
:1080D00000000000000000000000000000000000A0
:1080E0000000000000000000000000000000000090
:1080F0000000000000000000000000000000000080
:10810000000000000000000000000000000000006F
:10811000000000000000000000000000000000005F
:10812000000000000000000000000000000000004F
:10813000000000000000000000000000000000003F
:10814000000000000000000000000000000000002F
:10815000000000000000000000000000000000001F
:10816000000000000000000000000000000000000F
:1081700000000000000000000000000000000000FF
:1081800000000000000000000000000000000000EF
:1081900000000000000000000000000000000000DF
:1081A00000000000000000000000000000000000CF
:1081B00000000000000000000000000000000000BF
:1081C00000000000000000000000000000000000AF
:1081D000000000000000000000000000000000009F
:1081E000000000000000000000000000000000008F
:1081F000000000000000000000000000000000007F
:10820000C02D002035A303000B45040021A303006B
:1082100021A3030021A3030021A303000000000009
:10822000000000000000000000000000E9A40300BE
:1082300021A3030000000000B5A4030021A3030054
:108240009DA603009DA603009DA603009DA6030016
:108250009DA603009DA603009DA603009DA6030006
:108260009DA603009DA603009DA603009DA60300F6
:108270009DA603009DA603009DA603009DA60300E6
:108280009DA603009DA603009DA603009DA60300D6
:108290009DA603009DA603009DA603009DA60300C6
:1082A0009DA603009DA603009DA603009DA60300B6
:1082B0009DA603009DA603009DA603009DA60300A6
:1082C0009DA603009DA603009DA603009DA6030096
:1082D0009DA603009DA603009DA603009DA6030086
:1082E0009DA603009DA603009DA603009DA6030076
:1082F0009DA603009DA603009DA603009DA6030066
:1083000053B94AB9002908BF00281CBF4FF0FF31FC
:108310004FF0FF3000F00CB8ADF1080C6DE904CE61
:1083200000F02BF8DDF804E0DDE9022304B070472B
:10833000704700BF034611F8012B03F8012B002AF8
:10834000F9D17047034613F8012B002AFBD1181A04
:1083500001387047430803F05533C01A00F0333337
:10836000800800F03330184400EB10104FF0013358
:1083700000F00F305843000E70472DE9F047864655
:108380008C460846089E154674461946002B40F058
:10839000C2808542B2FA82F245D94AB1C2F12003C5
:1083A00000FA02FC2EFA03F3954043EA0C0C9440C9
:1083B0004FEA154EA8B2BCFBFEF8230C0EFB18CCFE
:1083C00008FB00F943EA0C43994528D9EB1808F15A
:1083D000FF3704D2994502D9A8F102072B44A3EB39
:1083E0000903A4B2B3FBFEFC0EFB1C330CFB00F034
:1083F00044EA0344A04214D92C190CF1FF3304D2EF
:10840000A04202D9ACF102032C44241A43EA0740EB
:108410001EB1D440002334607360BDE8F087474646
:10842000DDE76346F1E792BB431B01214FEA154E9E
:10843000AFB2B3FBFEFC200C0EFB1C330CFB07F8A9
:1084400040EA0343984562D9EB180CF1FF3004D29F
:10845000984502D9ACF102002B44A3EB0803A4B267
:10846000B3FBFEFC0EFB1C330CFB07F744EA034492
:10847000A7424ED92C190CF1FF3304D2A74202D9DE
:10848000ACF102032C44E41B43EA0040C0E7C2F114
:10849000200320FA03F1954090402EFA03F30343A2
:1084A0004FEA154EAFB2B1FBFEFC0EFB1C10190CCF
:1084B0000CFB07F841EA0041884504FA02F422D98E
:1084C00069180CF1FF3004D2884502D9ACF10200E2
:1084D0002944A1EB08019BB2B1FBFEFC0EFB1C1171
:1084E0000CFB07F743EA01439F420ED9EB180CF14E
:1084F000FF3104D29F4202D9ACF102012B44DB1BB5
:1085000041EA004192E76046E3E76146F7E76046EB
:10851000A3E76346B7E7834206D916B900210846A8
:108520007BE7C6E900E0F9E7B3FA83F78FB9834246
:1085300001D3724508D8BEEB020460EB03030120AF
:108540009C461EB9002168E73846FAE7C6E9004CA8
:10855000F8E7C7F1200CBB4022FA0CF41C432EFABA
:108560000CF120FA0CF3B84001434FEA14490EFA1B
:1085700007F5B3FBF9F81FFA84FE09FB18300B0C62
:1085800008FB0EFA43EA00439A4502FA07F240D983
:10859000E31808F1FF3004D29A4502D9A8F102008D
:1085A0002344A3EB0A0389B2B3FBF9F809FB1833A0
:1085B00008FB0EFE41EA03418E452CD9611808F1F3
:1085C000FF3304D28E4502D9A8F10203214443EAC5
:1085D0000040A0FB0298A1EB0E014145CE46434668
:1085E00002D306D14D4504D2B9EB020E68EB040369
:1085F0000138002EA6D0B5EB0E0261EB030101FAA3
:108600000CFC22FA07F34CEA0303F940C6E90031F7
:1086100098E74046C5E74346D9E700004FF080435E
:108620005722C3F81C25BFF34F8F0549054BCA6875
:1086300002F4E0621343CB60BFF34F8F00BFFDE74E
:1086400000ED00E00400FA0530B5134897B00AF0D9
:10865000CBFF00F04BF911480AF0C6FF104A114851
:10866000032301A909F0A4FC88B90F480F4D0AF0B3
:10867000BBFF002400214FF480400AF02FFD21466B
:1086800028460AF09FFF0B2C03D1FFF7C7FF0848CD
:10869000ECE70134EEE700BFAE770400C7770400D3
:1086A000DE770400A0070020EC77040010780400B7
:1086B000FC77040002460B46014809F063BF00BF87
:1086C00020090020014809F0D5BF00BF2009002083
:1086D000F8B507460D464FF0FF304FF0FF311C460E
:1086E0001646FFF7E7FFF9690A48069B006822462D
:1086F00001FB05610BF0ACFD0446FFF7E3FF002C26
:1087000005DA05482346324629460AF05BFF204633
:10871000F8BD00BF3C09002027780400F8B50746E3
:108720000D464FF0FF304FF0FF3114461E46FFF765
:10873000C1FFF9690648069B006801FB0541324606
:108740000BF086FD0446FFF7BDFF2046F8BD00BFD5
:1087500038090020F8B507460D464FF0FF304FF0BE
:10876000FF3114461E46FFF7A5FFF9690648069B30
:10877000006801FB054132460BF06AFD0446FFF735
:10878000A1FF2046F8BD00BF34090020F8B5074618
:108790000D464FF0FF304FF0FF311C461646FFF7F5
:1087A00089FFF9690A48069B0068224601FB0561BA
:1087B0000BF063FD0446FFF785FF002C05DA054842
:1087C0002346324629460AF0FDFE2046F8BD00BF8A
:1087D0003C09002052780400F8B507460D464FF0DA
:1087E000FF304FF0FF3114461E46FFF763FFF96973
:1087F0000648069B006801FB054132460BF03DFD33
:108800000446FFF75FFF2046F8BD00BF380900208F
:10881000F8B507460D464FF0FF304FF0FF311446D4
:108820001E46FFF747FFF9690648069B006801FBF3
:10883000054132460BF021FD0446FFF743FF204679
:10884000F8BD00BF3409002070B5C4690D4601FBB6
:1088500004F64FF0FF304FF0FF31FFF72BFF094BCD
:108860002246186831460BF01DFD0446FFF72AFF2B
:10887000002C04DA0448224629460AF0A3FE2046CA
:1088800070BD00BF3C0900208078040038B5C56980
:108890004FF0FF3001FB05F44FF0FF31FFF70AFF07
:1088A000054B214618682A460BF0FCFC0446FFF7EE
:1088B00009FF204638BD00BF3809002038B5C5691A
:1088C0004FF0FF3001FB05F44FF0FF31FFF7F2FEF0
:1088D000054B214618682A460BF0E4FC0446FFF7D6
:1088E000F1FE204638BD00BF340900202DE9F041DB
:1088F00065480DF0E8FF65480AF064FE644907200A
:1089000000F06CFA041E04DA624821460AF05AFEAE
:108910004CE0614F61494FF00108082087F8008062
:1089200000F05CFA041E02DA5D482146EEE75D4E77
:108930005D4986F800800A2000F050FA041E02DA31
:108940005A482146E2E75A4D5A4885F800800AF015
:1089500039FE5949594809F0C5F8014648BB5849FC
:1089600058480AF02FFE03233B7057480AF02AFEAE
:108970005649574809F0B6F8014600283CD15549F8
:1089800055480AF01FFE0323337054480AF01AFEBC
:108990005349544809F0A6F8044600284FD15249DB
:1089A00052480AF00FFE03232B7000242046BDE836
:1089B000F08110F1540F1DD14D480AF003FE3E49DD
:1089C0003E4809F02BF8014690B94A480AF0FAFDF2
:1089D00039493A4802233B7009F084F8014618B936
:1089E00045480AF0EFFDBEE744480AF0EBFDBCE75E
:1089F0004348FAE74348F8E710F1540F1DD14248C5
:108A00000AF0E0FD3149324809F008F8014690B912
:108A10003E480AF0D7FD2D492D480223337009F056
:108A200061F8014618B93A480AF0CCFDABE739487D
:108A30000AF0C8FDA9E73848FAE73848F8E710F126
:108A4000540F1DD136480AF0BDFD2549254808F0D0
:108A5000E5FF044688B933480AF0B4FD02232049F3
:108A600020482B7009F03EF8044618B92E480AF049
:108A7000A9FD98E701462D4848E701462C4845E7FF
:108A800001462C4842E700BF200900209F780400DF
:108A90003C090020BB78040026170020380900207C
:108AA000F078040025170020340900202279040002
:108AB000241700205B79040050730400A0080020F4
:108AC000857904008A790400C17A0400FC720400EC
:108AD00020080020E87A0400ED7A04000F7C0400EE
:108AE000A8720400A00700203D7C0400437C040021
:108AF000AB790400CC790400097A04003E7A0400C2
:108B0000727A04009A7A04000B7B0400297B04002B
:108B1000637B0400957B0400C67B0400EB7B0400B0
:108B2000687C04008D7C0400CE7C0400077D04007A
:108B30003F7D04006B7D0400014B1B68184700BF9C
:108B4000B0000020014B1860704700BFB00000204B
:108B500030B585B004460D461022002168460EF05F
:108B600002FA02238DF802302A46044B0193214673
:108B700068460AF059FD05B030BD00BF398B0300CF
:108B800080B505460E46174698460AF0E3FA0346B6
:108B90000EF0F2F9DFF81890044649F8003042462A
:108BA00030463946A84754F8090001F031FC00BFAF
:108BB000080000002DE9F047058B04462807904681
:108BC00011D4022905F0070540F0CC8020460BF0B7
:108BD0007FF978B10138218B042811D8DFE800F043
:108BE000C2106D85950001290CBF45F0100545F0B8
:108BF0002005258388F31188BFF36F8FBDE8F087C8
:108C000001F0070AAA4500F0A5800027B9463E46B4
:108C1000A368002B00F0BC8041F00801218388F399
:108C20001188BFF36F8FA168002900F0BA800D682A
:108C3000002900F0B680D1F8048033465246204621
:108C4000C047002D76D02B6829461D46F0E701F07D
:108C500007035A1F012A1BD8002221F00701062B07
:108C6000276889B2C4E9002209D13B4603E0628B40
:108C7000013262831B68002BF9D141F0020121838C
:108C800020460BF025F900287AD041F0200176E04B
:108C9000042B0AD121F0070189B2218320460BF071
:108CA00017F910B141F020012183218B01F0070A4F
:108CB000AA454FD00027B946AAE7236921F007014A
:108CC00041F00601062DD3F8009021832DD1B9F192
:108CD000000F3FD041F00801218388F31188BFF3D2
:108CE0006F8F3A492046C84729E021F007012369E0
:108CF00041F0040189B2042DD3F804902183E6D019
:108D000000273E464FF0040A82E721F0070123695D
:108D100041F0050189B2052DD3F808902183D6D002
:108D200000273E464FF0050A72E700273E464FF007
:108D3000060A6DE72B4687E7B9F1000FD1D1EFF3B3
:108D40001188202383F31288BFF36F8F238B23F0C6
:108D500008032383258BEA062ED525F010032383F1
:108D600005F007056669218B002EBFF670AF002362
:108D70002768C4E9003321F0070141F00101218394
:108D8000218B01F0070AAA454FF000097FF440AF9C
:108D9000002F9CD041F00801218388F31188BFF394
:108DA0006F8F002FC8D03D68394633465246204663
:108DB0000BF0BAF82F46F4E7AB067FF51BAF25F0B2
:108DC0002003238305F0070500E700BF553F04009B
:108DD000014B036000207047A473040070B5114B71
:108DE0001C680D46DCB1104B196800238B4202DB76
:108DF0006FF0010070BD224612F8106B864202D05F
:108E000001331446F2E7E06810B96FF01200F1E7A1
:108E10000DF065FC0028F8D02C600020EAE76FF028
:108E20000C00E7E7B4000020A4730400F0B40C4B7E
:108E30000C4E5F6A0C4BB34203D36FF08500F0BC5D
:108E400070475D68BD4209D31C693CB195F802C00A
:108E50000579AC4502D12346F0BC18472433EAE734
:108E60004009002000040020DC0300202DE9F04729
:108E7000134CDFF85080DFF8509005460E46174639
:108E8000444503D36FF08500BDE8F0876268D9F8E8
:108E900024309A4212D3A36983B190782979884209
:108EA00005D13A4631462846BDE8F0471847527981
:108EB000012A03D13A463146284698472434DFE751
:108EC000DC03002000040020400900202DE9F041CF
:108ED0000B4CDFF8308005460E461746444502D35A
:108EE0006FF0850009E063690BB92434F6E73A4670
:108EF0003146284698470028F7D1BDE8F08100BFE9
:108F0000DC0300200004002010B504460BF05AFDDD
:108F100010F1780F00D050B9054A20460BF0EFF958
:108F2000D2F8C43023EA0003C2F8C430002010BDD8
:108F300040090020024B00221A605A60704700BFAF
:108F4000FB09002070B50B4B0B4CA34201D3002052
:108F500070BD196A1E7F00220439D5B2AE4201D815
:108F60002433F2E7013211F832508542F5D1012065
:108F7000EEE700BFDC0300200004002008B509482C
:108F80000378C3F341130A3350F823303BB100F1A7
:108F9000080200F110019847C043C00F08BD1846F1
:108FA000FCE700BF4009002004282DE9F14FDFF85D
:108FB000989004460F4616D001282DD1DFF88C80FA
:108FC00098F8B93043B300F0FFFD214D4D4520D254
:108FD000D5F820B04FF0000A2B7F5FFA8AF6B34233
:108FE00004D82435F2E7FFF7A5FFE7E70BEBC60649
:108FF0000AF1010A30790BF0E5FC024630790BF0FA
:109000007EF9D8F8C430002A23EA0003C8F8C43037
:10901000E2DA002388F8B9300D4D4D4508D30B4BEB
:109020001B6A6BB13946204601B0BDE8F04F1847C6
:10903000EB681BB13A462146284698472435ECE7B1
:1090400001B0BDE8F08F00BF0004002040090020FF
:10905000DC03002073B5C4B263060D468DF80740EB
:1090600007D02046FFF76EFF78B10D4B93F8BA009A
:1090700058B10B4E204655B102F0C8FAF3691BB146
:109080000DF1070108209847012002B070BD02F0E1
:10909000E5FAF369002BF7D00DF107010920F2E79B
:1090A0004009002073B586788DF800600379427915
:1090B0001C4C43EA0223ADF80230C378304603F07B
:1090C00003038DF804300BF01AF9D4F8C4301842B9
:1090D00005460BD0304600F059FD3046FFF714FF2F
:1090E0000DF0E4FC10B996200AF016F8684602F07C
:1090F00069FA10F1780F03D010B1002002B070BDF2
:109100009DF8000002F0E6FA10F1780F01D0002877
:10911000F3D1D4F8C43001202B4384F8B900C4F84B
:10912000C430EBE7400900202DE9F047A34EB369B6
:1091300004460F461546FBB9237803F01F03012BA5
:1091400000F09D80022B00F0048133BB94F90000F5
:109150002A686178002834DA062912D008292BD031
:10916000D9B901231370517096F8C3305B0043F0F6
:109170000103137002232AE198470028DCD1002064
:109180000DE06288100A011F0129844605D90728CD
:1091900003D8716AD2B20C781CB96FF01500BDE823
:1091A000F0874E78664503D19A4200F00B81013377
:1091B0002144F0E70B780AE196F8BA3013700123E6
:1091C00005E101390829E8D801A353F821F000BFCF
:1091D000699203009B910300779203009B91030027
:1091E000F59103009B9103009B9103009B91030069
:1091F00001920300A07802F0D3F90028BFD0CCE799
:109200006388756A63BBFFF795FE638886F8BA309A
:10921000F369002BB3D06A4903209847AFE76B7816
:10922000042B10D0052B11D0022B04D16F79638849
:10923000BB4208BF01202B781D442B78002BEED1B8
:109240000028AAD0DFE795F80380F4E76388BB42E3
:10925000F1D1B8F1000FEED12846FFF723FFEAE77E
:10926000FF270020B846E8E76388012B95D100234B
:1092700086F8C33083E76388012B8ED1F8E796F830
:10928000BA30D5F800C0002B87D0756AA38894F84F
:1092900004E02A46107800283FF47FAF5178022975
:1092A00004D192F80480F04500F293800244F1E783
:1092B0008CF800208CF80120396060E7154494E0B8
:1092C0000B2A7FF46AAF00274FF0FF08C146BA4669
:1092D00006E06B78042B0FD0052B21D02B781D4492
:1092E0002B78002BF5D1F36913B15146072098472D
:1092F000002F7FF444AF50E795F80280A38895F8DB
:1093000003909845EAD163889945E7D1B8F1070FF2
:109310001CD806EB0803AA4683F8BB900127DDE7BB
:10932000A3884345DAD1A3784B450AD0AF783846B5
:1093300000F02CFC3846FFF7E7FDB0FA80F77F0914
:10934000CCE72846FFF7AEFE0746C7E7AA46002748
:10935000C4E794F900206378002A18DA002B7FF420
:109360001CAF24792D6863060AD02046FFF7EAFD7A
:1093700000283FF412AF96F8BA30002B3FF40DAF3F
:109380002946204602F08AF900236B70F2E6012B91
:1093900008D0032B7FF401AF6388002B7FF4FDAE70
:1093A000012103E0618800297FF4F7AEA088FFF770
:1093B00051FE00287FF4E3AEEFE600BF4009002035
:1093C000FA090020022829607FF4F4AE4B883B6044
:1093D000D5E694F9000062780028BFF671AF002A44
:1093E0003FF466AF0A2A7FF4D8AE2A78002A3FF409
:1093F000D4AE697804297FF461AFA9788B427FF4F9
:109400005DAF072B96BF9B19002393F8BB308CF8F8
:109410000030D4E613B5164C237DF3B9E268A16899
:10942000019201AB80200AF078FF019AA3681344EF
:10943000A360E3689B1AE3606BB962B12369E288B9
:109440009A4208DD94F8C82093FBF2F102FB113335
:109450000BB90123237502B010BD00231A4619462B
:109460008020237502B0BDE8104002F05DB900BF56
:109470004009002030B585B0002302460D46019317
:10948000002858D1002935D108220B460DEB0201E6
:109490000BF0B1FA002804DA802002F0B7F805B02A
:1094A00030BD2A4C029A2260039A626004F13802AD
:1094B000A2609DF90820BDF80E302575002AC4E988
:1094C00003550ADB802B04D9802002F09FF800208E
:1094D000E3E713B1C4E90333E1E7FFF74FFD0028E9
:1094E000DAD0E28823699A42D4BFE260E360FFF7F2
:1094F00091FFD4E7154CD4E90215002D01AB04DC33
:109500000BF079FA0028CADAC6E72A460BF073FA9C
:109510000028D9DB019AA3681344A360E3689B1A6F
:10952000E360002BBBD104F13803A360FFF726FDF5
:109530000028DCD1B0E78028B1D1044BDA68002ADA
:10954000D5D11B7D002BD2D1A9E700BF4009002057
:10955000054B064A9A62064ADA62064A1A63064AC6
:1095600058629A6100207047400900202991030049
:109570002D8E0300CD8E03006D8E03002DE9F34187
:109580000446474D47484FF0FF334FF0FF3208F095
:10959000F9FF95F8B830002B7BD16B6A83B1424854
:1095A0002C62E8616E6A02F0D9F901F0C7FF041E6F
:1095B00010DA3C4809F05EF8204602B0BDE8F081C0
:1095C00000F0BEF8FFF7C4FF6B6A002BE7D14FF045
:1095D000FF34EEE700F01AFB041EEADB7378012B80
:1095E0005AD1F379002B57D00026684685F8C83049
:1095F000ADF802308DF804608DF8006001F0E2FFF4
:10960000041ED6DB802768468DF8007001F0DAFF73
:10961000041ECEDB2549304602F08CF9041EC8DB5F
:109620002249384602F086F9041EC2DB204CDFF8DE
:10963000848044451AD3002002F04CF8041EB8DBA5
:10964000D5F8C430802043F00103C5F8C43002F0DF
:1096500041F8041EADDBD5F8C43043F48033C5F8BF
:10966000C430012385F8B8300024A2E7276A002619
:10967000227FF3B29A4201D82434DAE707EBC3021F
:1096800057F83310107902F055F901360028EFD061
:109690009DE76FF077048CE76FF0150489E700BF52
:1096A0004009002004030020A98F030075940300E3
:1096B000DC0300200004002030B51F4B8BB005AA4E
:1096C00003F1100518685968144603C40833AB4207
:1096D0002246F7D11B7823701022002101A80DF03B
:1096E00042FC1222002115480DF03DFC102101A87A
:1096F0000BF09AFB00281BDD0828B8BF08200938AA
:1097000001AB0E491A18002012F8013F0AAC04EB15
:10971000131403F00F0328336B44013014F8144C76
:1097200013F8143C0C7008284B7001F10201EBD1C6
:1097300002480BB030BD00BF967D04002817002002
:109740002DE9F04F724B93F800B087B0BBF1000FDA
:1097500003D0704807B0BDE8F08F6E4C00264FF084
:10976000011AB0463546B14623783BB96A4B0234FC
:109770009C42F3D1664A01231370EAE76378052B14
:109780001BD8DFE803F08E03C38E1D39402304A8E5
:109790008DF810B0ADF812308DF814B00BF0FDF864
:1097A00040B1082304A8ADF812300BF0F6F808B168
:1097B000ADF812B0BDF81230E37123781C44D3E742
:1097C000E378002BF9D1A3786BB108F101085FFAB7
:1097D00088F8F2E76B689C4207D024354F4B9D42D6
:1097E000F8D30020B6E74E4DF8E7AB68002BECD07D
:1097F000414620469847E8E7002DF2D000222B7F13
:109800009A42EED2296AA07801EBC2010B79984204
:1098100001D00132F3E70127E07800F003008DF872
:109820001400207994F805C040EA0C20ADF812002D
:1098300094F902000028FBB228DA07F110004FF07B
:10984000010C0CFA00F010EA0A0F26D143F0800058
:109850008DF8100004A8CDE9021301920BF09DF8D9
:10986000DDE90121039BC0B99DF81020A27012F020
:10987000800F18BF10330A7118BFDBB24FF001021E
:1098800014BF9A40BA404AEA020A96E70120B8405B
:1098900010EA0A0F01D11846DAE70137102FBBD1C1
:1098A000B7E7032E1AD1FFF707FF074650B1FEF7BF
:1098B00049FD024630B11028A8BF10223946A01C2D
:1098C0000DF029FB23786FF00201E218091B04EB6D
:1098D0005303D14213D50136F6B26EE7002EF1D113
:1098E000B9F1000F3FF47DAFA4EB090389F8023012
:1098F000C3F3072389F8033089F80480EBE702F803
:1099000001BC13F8010902F8020DE2E7A14654E791
:109910002717002038030020DB030020000400206C
:10992000DC03002010B5094B00211A461C78844244
:1099300004D15C6814B102EB811010BD013104291F
:1099400003F14003F2D10020F7E700BF0C0A00202A
:109950002DE9F34150F8283C10F82C6C10330446E4
:109960000AD1036950F8202C980736D5D2B9590787
:1099700015D5002344F8283C54F8283C10330BD06C
:1099800054E9077554F8148C0DF090F800284FD066
:109990002E4821460DF06EF802B0BDE8F08143F08C
:1099A0000403236154F8241C01AB30460AF0B5FCD3
:1099B00010B16FF01503DDE7019A54F8243C13440D
:1099C00044F8243C54F8203C9B1A44F8203C54F8BA
:1099D0001C3C134444F81C3CCEE754F8241C01AB57
:1099E000304601F01DFF0028E3D1019D54F8243CCE
:1099F0002B4444F8243C54F8203C5B1B44F8203CA6
:109A000054F81C3C2B4444F81C3C002DB1D030468B
:109A100001F0AAFFB5FBF0F303FB1055002DA8D110
:109A200054F8203C002BA4D0304601F041FFA3E7BE
:109A300044F8180CA4F1100008F08AFE002DABD0F9
:109A4000424639463046A847A6E700BF000400203A
:109A50004B1E012B73B506460D460FD8FFF762FF6C
:109A6000044668B9012D09D101AB01220DF10301B2
:109A7000304601F0D5FE019B002BF5D102B070BD40
:109A80000DF014F804F12C0108B1012D05D10846A0
:109A900002B0BDE87040FFF75BBF034802B0BDE80D
:109AA00070400CF0E7BF00BF000400202DE9F74F25
:109AB00006460191154698460AF07AFC04460028AD
:109AC0005BD1EFF3118A202383F31288BFF36F8FEA
:109AD000DFF8ACB000220023584608F05DFE70B9F4
:109AE000DFF8A090A70109EB8414636813F1100F4D
:109AF00014D10193584608F02BFE019B06E0013477
:109B0000042C0BF1400BE5D16FF00B038AF31188A5
:109B1000BFF36F8F184603B0BDE8F08F019B206143
:109B2000C4E902350C9B63610D9BA36130466FF065
:109B30000F0309F80760C4F83C80636001F014FF6C
:109B400058B1304601F010FFB5FBF0F303FB1055A0
:109B50001DB1E36B43F00403E36318F0020F07D079
:109B600007F12C01084849440CF084FF0023CDE79D
:109B7000304601F09DFE0346C8E76FF00F03C9E7CA
:109B8000280A00200C0A00200004002010B5EFF382
:109B90001184202383F31288BFF36F8FFFF7C2FE77
:109BA00050B14368103307D16FF08B03436000F16D
:109BB0002C0104480CF05EFF84F31188BFF36F8F13
:109BC00010BD00BF00040020F8B50E4C042520276E
:109BD000EFF3118687F31288BFF36F8F636810333A
:109BE00007D16FF08B030848636004F12C010CF07F
:109BF00041FF86F31188BFF36F8F013D04F14004EC
:109C0000E6D1F8BD0C0A00200004002070B50A4C13
:109C10000A4E0025314620460CF010FF0122A4F127
:109C20001000114601350CF0CDFE042D04F1400466
:109C3000F0D1002070BD00BF380A00205199030008
:109C400070B504460E460179154815460AF08CFB9E
:109C500010B394F900206378002A16DB202B04D07F
:109C6000222B0ED06FF085000AE02B681A6840F8AE
:109C7000102C9A8820F80C2C9B7900F80A3C0020C4
:109C800070BD638800F8093CF9E7212BEAD1103850
:109C9000072328603360F2E76FF01200F0E700BF9F
:109CA0000C0B002008B5014603480AF06BFB10B10D
:109CB000012300F8073C08BD0C0B002001690123BB
:109CC00081F84B300B6833B191F849301BB1024831
:109CD00008310CF0CFBE7047000400200169012359
:109CE00081F84A300B6833B191F848301BB1024813
:109CF00008310CF0BFBE70470004002070B501238E
:109D000082F8483013680D4614463BB192F84A3049
:109D100023B10E4802F108010CF0ACFED4F89030EB
:109D20001A699B689A4205D17DB904F1180140F681
:109D3000CD4204E004F11801002DF8D00022BDE866
:109D400070400248002308F0A3BE70BD000400204C
:109D500070B50569EFF31186202383F31288BFF3F2
:109D60006F8FD5F890000AF0FDF9044686F311884C
:109D7000BFF36F8F30B104480022002305F11801B2
:109D800008F086FE204670BD000400200D4A034600
:109D90000021A0F848101068C3F8940090889279C8
:109DA000A3F8980083F89A2083F89C1083F89B10FE
:109DB000A3F89E1083F8A010402203F14C000DF090
:109DC000D2B800BF90720400F0B5D0F88C305B6858
:109DD0001B6A1F7D85B0044638460AF0E9FA06463C
:109DE000F8B994F88630E3B1A06F4FF4806203A90C
:109DF0000AF0D7F90546A0B18306A4F1180308BFFD
:109E000000F1FF3584F830600193074B039900930C
:109E10002A4602233846FFF749FEA06F29460AF07A
:109E2000E0F905B0F0BD00BFFD9C030010B504696A
:109E30000023C4F8A8300C4BC4F8A400596804F1FE
:109E4000A80269B9C3E9002204F1080007490CF02F
:109E5000F5FD04F1180006490CF01CFE002010BDB1
:109E60000A605A60F0E700BF0C0B0020DB430400DF
:109E7000C99D030073B504698DF80710002384F8A9
:109E800048302025EFF3118685F31288BFF36F8FDA
:109E90000122D4F890000DF107010AF063F986F36E
:109EA0001188BFF36F8F01280AD00CF0FFFD10B9A5
:109EB00094F8A1306BB9094B1A780AB901221A70CB
:109EC0002122002304F11801054808F0E1FD02B049
:109ED00070BD0021212009F001F9D3E73A170020D5
:109EE0000004002037B514460A1E054620DDD4F8CC
:109EF0008C0004F14C010AF035F9012384F8493053
:109F000023683BB194F84B3023B1114804F10801A8
:109F10000CF0B0FDD4F88C104B684A699A1ACB69E2
:109F20009B1A3F2B04D8012384F8A03003B030BD26
:109F300094F89E30002BF9D0064B00930194012336
:109F4000402204F14C012846FFF7B0FDEEE700BFC8
:109F500000040020E59E0300F7B50D4601461D48AC
:109F60000AF0F6F9044610B30646691E56F8A439FD
:109F70005F6805291BD8DFE801F01C1A031C2226A4
:109F800010F8061C99B9012300F8063C3B6A3246DA
:109F9000187BFFF7A7FF14F85C2C42B93B6A187DC9
:109FA0000D4B0093019602231146FFF77FFD03B08E
:109FB000F0BD304603B0BDE8F040FFF7E7BE012337
:109FC00004F8053CF3E710F8053C002BEFD0002324
:109FD000F6E700BF0C0B0020FD9C030037B5094DD0
:109FE0000949002400944FF0FF334FF48062284663
:109FF00008F010FD054928460CF05EFD204603B030
:10A0000030BD00BF0004002080170020B47D040094
:10A0100030BFFFF7FDBF00BF2DE9F0410B4EDFF869
:10A02000308006EB0807CC1B05463246094920461E
:10A030000CF071FFA01942460021083C0CF093FF80
:10A040002C6707F10800BDE8F08100BF00000000A8
:10A050000800000044720400074A936893F90E1048
:10A06000002907DB526993421FBF044A536843F03B
:10A0700080535360704700BFEC16002000ED00E0F5
:10A0800070B5264B15469A6A12F0100F9A6A14BFE3
:10A090001124102412F0080F9A6A18BF1224920794
:10A0A00006460AD5586B9A6A140634D519B19A6ACD
:10A0B00022F080029A62132401E06FF01500174B22
:10A0C0009A6A12F0010F9A6A18BF142412F0200F36
:10A0D0009A6A18BF1524D20602D49B6A9B070AD538
:10A0E0000E4B5B68190506D5314600F08DFA10B1AC
:10A0F00080F309880224094B9A6A920642BF5A6A81
:10A1000022F400525A629A6A42F0FF029A620023D5
:10A110002B70204670BD6FF01500CCE700ED00E01D
:10A12000134B9A6A12F0007F9A6A14BF1E201D20FA
:10A1300012F0807F9A6A18BF1F2012F4002F9A6ACB
:10A1400018BF212012F4802F9A6A18BF222012F41F
:10A15000003F9A6A18BF232012F4803F9A6A6FEA80
:10A1600002426FEA12429A6218BF2420704700BF71
:10A1700000ED00E010B5194B0246986A9C6A10F495
:10A18000805F14BF1720162014F4006F9C6A18BF5C
:10A190001820A40509D5986B986A000404D51AB153
:10A1A0009A6A22F400429A6219200C4B9A6A12F4BD
:10A1B000806F9A6A18BF1A20D2050CD49B6A13F4D8
:10A1C000005F18BF1C20054A936A43F47F439362E3
:10A1D00000230B7010BD1B20F5E700BF00ED00E071
:10A1E000F0B5484B5B688BB00446C3F30803002509
:10A1F00085F31188BFF36F8F02F07F40B0F17F4F7E
:10A2000011D102F00C0008280DD010074CBF0C46ED
:10A2100001250022033B8DF80720032B05D8DFE83A
:10A2200003F0246367602C46F3E700239DF80720C2
:10A23000CAB902AE04F1200720686168324603C241
:10A240000834BC421646F7D1099A002D54D0C2F307
:10A25000080121B96FEA52226FEA4222099202A94B
:10A2600018460AF048F90BB0F0BD264BDA6A9107A0
:10A27000DBD4DA6A002AD8DBDA6A5200D5D55A690B
:10A28000A16942F480725A61BFF34F8FBFF36F8FA1
:10A290005A6931F8021C22F480725A61BFF34F8F61
:10A2A000BFF36F8F4DF6027291420AD09A6AD2B212
:10A2B0004AB10DF1070201212046FFF7E1FE0346F6
:10A2C000B4E72368B2E79A6A12F47F4F05D00DF124
:10A2D00007010120FFF74EFFF1E79B6AB3F5803FCE
:10A2E000A3D3FFF71DFFEAE70DF107020021E3E723
:10A2F0000DF107010020EDE722F4FF7222F00102C8
:10A30000ACE700BF00ED00E0044B5A6942F01002D8
:10A310005A615A6922F008025A61704700ED00E064
:10A32000EFF30880EFF3098101B57246FFF758FF9C
:10A3300001BD00BF002080F31488BFF36F8F03F0CE
:10A34000D3FE00200D490860BFF34F8F0C4880F307
:10A35000088800F02BF8202080F3118809484FF47A
:10A360000461401880F30988EFF314800221084348
:10A3700080F31488BFF36F8F00F00EF994ED00E0C6
:10A38000C02D0020002000200749D1F89020002394
:10A39000C2F307221846934200DB7047C1F8983099
:10A3A000C1F8A0000133F6E700ED00E008B572B691
:10A3B000002383F31388FFF7E7FF144B4FF0FF32BE
:10A3C000C3F88020C3F88420C3F88820C3F88C2009
:10A3D000C3F89020C3F89420C3F89820C3F89C20B9
:10A3E000C3F88021C3F88421C3F88821C3F88C21E5
:10A3F000C3F89021C3F89421C3F89821C3F89C2195
:10A4000062B6BFF34F8FBFF36F8F08BD00E100E06E
:10A41000084B9B6883420BD1EFF3058343B1064B96
:10A420005A6842F080525A605A6A22F400425A62D4
:10A430000CF017BCEC16002000ED00E0094A936810
:10A440006FF00A019967084958674B6843F08053D9
:10A450004B60002383F31188BFF36F8F9368986F6D
:10A46000704700BFEC16002000ED00E010B5044678
:10A47000EFF31183202383F31288BFF36F8F0A4B0E
:10A4800058699860094B4FF000625A60084B026FA0
:10A490001A600022436F426783F31188BFF36F8F06
:10A4A00000F01AF9204610BDEC16002000ED00E087
:10A4B000140B00200B498A684FF030001044EFF372
:10A4C000098C80E8F01F74467046FFF7CFFFA64660
:10A4D00004498A6802F1300090E8F01F8CF3098883
:10A4E00070470000EC1600201EF0040F0CBFEFF3C5
:10A4F0000880EFF30980816911F8021C0229FFD05E
:10A5000001B509F0FEFF01BD40B2002807DB044A97
:10A510004109012300F01F00834042F821307047B9
:10A5200000E100E040B200280CDB4309064900F0DE
:10A530001F0020330122824041F82320BFF34F8FB8
:10A54000BFF36F8F704700BF00E100E0054B420989
:10A5500000F01F0053F82220012303FA00F01040FE
:10A56000704700BF00E100E040B20028A8BF00F142
:10A57000604001F10101B8BF064B4FEA4111ACBF89
:10A5800000F5614000F00F00C9B2B4BF195480F863
:10A590000013704714ED00E00B4A08B50B4B22F096
:10A5A0007F029A60BFF34F8FBFF36F8FD3F888207D
:10A5B00022F47002C3F8882007F0E0FE08F068FE7D
:10A5C00000F060F807F01EFF0082030000ED00E0DD
:10A5D00042F8203C009B42F81C3C0A49019B42F88F
:10A5E000183C029B42F8143C21F001014FF08073AB
:10A5F00042F8043C42F8081C0023203A02654367F5
:10A60000704700BF818B0300094A0346906870B110
:10A6100013F1160F006E05D0A0F140029A4205D842
:10A62000834203D2814228BF002070470020704738
:10A63000EC16002008B515460B4A0C4B9060026FD3
:10A640001A600E4600F048F82C4686F309884FF051
:10A650000000074B984720464FF000014FF00002E2
:10A660004FF00003034C2047EC160020140B002091
:10A6700021450400818B0300014B10221A617047B1
:10A6800000ED00E0044800232021C2180133302BE4
:10A6900082F80013F9D1704700E100E008B5EFF34C
:10A6A0000583064A103B02EBC30152F833004968A8
:10A6B0008847BDE80840FFF7CFBC00BFC470040066
:10A6C000024B034A0348012100F076B80000042041
:10A6D000000000209C740400026E054B403A1A6092
:10A6E000044A4021C3E901121846012100F06EB866
:10A6F000180B002000000B15084AC2F898000B68E0
:10A7000023F01F03034343F01003C2F89C308B680F
:10A7100043F00103C2F8A030704700BF00ED00E035
:10A720002DE9F043DFF8608085B00E461F460446F1
:10A730004FF00009B14523DA6068D8B13FB1411E3E
:10A7400008421BD11F2819D92368194216D1236842
:10A75000019309F008FFA36803430393D8F89050CE
:10A76000C5F30725D0B2013DA84207D801A9FFF7DC
:10A77000C3FF421C09F101090C34DBE76FF015023D
:10A78000104605B0BDE8F08300ED00E0044B052263
:10A79000C3F89420BFF34F8FBFF36F8F704700BF94
:10A7A00000ED00E0BFF35F8F024B0022C3F894205E
:10A7B000704700BF00ED00E010B5034C0123227884
:10A7C000FFF7AEFF207010BD3B17002008B50B4A05
:10A7D00000231278FFF7A4FF10F1160F07D0084AE4
:10A7E0000021D2F89030C3F30723984200DB08BD64
:10A7F000C2F89800C2F8A0100130F2E73B17002021
:10A8000000ED00E02DE9F043534B544CD3F8903069
:10A810002568C3F307239D4285B000F29A80FFF7B5
:10A82000C1FF00200C2685421AD14D4C4D4F25709A
:10A830006846FEF7CDFADFF82081DFF82C91064656
:10A840000025AE4213D1237843490020D1F890204F
:10A85000C2F30722934276DBFFF798FF002042E025
:10A86000616806FB0011FFF747FF0130DBE7009846
:10A8700000EB05114FEA051CCB683B40B3F5000F18
:10A8800048D00AD8B3F5001F30D0B3F5800F36D0CA
:10A89000B3F5801F10D00135D3E7B3F1807F42D0EC
:10A8A000B3F1007FF7D150F80C3088684A6809F09E
:10A8B0005AFE40F4802009E050F80C3088684A685D
:10A8C00009F051FE40F0885040F43020CDE90123DA
:10A8D0000390D8F890302078C3F30723013B9842C7
:10A8E0002AD96FF0150005B0BDE8F08350F80C30A0
:10A8F00088684A6809F037FE40EA0900E6E750F840
:10A900000C3088684A6809F02EFE40F0007040F470
:10A910000030DBE750F80C3088684A6809F023FE05
:10A9200040F08270D2E750F80C3088684A6809F02D
:10A930001AFE40F08870C9E701A9FFF7DDFE237811
:10A9400001332370A7E7C1F89830C1F8A0000133A4
:10A950007CE74FF0FF30C6E700ED00E0A87404008C
:10A960003B1700200000F0FF0000081108B5024B63
:10A970001B689847002008BD240B0020034B044AA5
:10A980001860937843F0020393707047240B002003
:10A990001001002008B50649064821F00701C1F161
:10A9A000005202F5802209F02CFA002008BD00BFF9
:10A9B000A7400020280B002003484FF0FF324FF043
:10A9C000FF3307F0DFBD00BF20010020014807F082
:10A9D00051BE00BF2001002038B50546FFF7ECFF4F
:10A9E00008482A46082109F0A4F9044628B925B1E7
:10A9F0000CF0C2FA044B0C221A50FFF7E7FF204676
:10AA000038BD00BF280B00200C00000010B5044624
:10AA1000FFF7D2FF2146034809F053F9BDE8104083
:10AA2000FFF7D4BF280B00200E4A0123C2F840359F
:10AA30004FF080424FF08051C2F87835D1F83001A4
:10AA4000082808D1D1F83411052904D80648415CFA
:10AA500009B1C2F838364FF080430122C3F880258F
:10AA60000020704700E00140CC7D040020B1034B82
:10AA7000800143F001031847704700BFA072040033
:10AA8000084B5968024611B11968884207D0D86846
:10AA900030B1996804488A4218BF002070471846B0
:10AAA000704700BF340B00203C0B002002460B46D1
:10AAB000014807F067BD00BFF0020020014807F021
:10AAC000D9BD00BFF002002038B504460D464FF056
:10AAD000FF304FF0FF31FFF7E9FF2046FFF7D0FFCF
:10AAE00008B143687BB90B4B5A6812B1DA686AB98E
:10AAF000012243F8324003EBC20300245D60FFF7FC
:10AB0000DDFF204638BD6FF07704F8E76FF01B04D7
:10AB1000F5E700BF340B002038B131B18B69184420
:10AB2000024B0278002A08BF18467047D27D040005
:10AB300001490120FFF7C8BFCC74040010B50368B9
:10AB40005A6D04461AB1196E04480BF04EFE216886
:10AB500003480BF080FE0023236010BDDC020020C0
:10AB6000A4020020002807DA5430522802D8034BF0
:10AB7000185670476FF00400704700BF2D7E040028
:10AB8000002805DA5A30582804D8044B1856704764
:10AB9000002070476FF00400704700BFD47D0400B0
:10ABA0002DE9F743436804461E6988461546014669
:10ABB00000222448002307F0B7FC014600283ED1BC
:10ABC0002768642238460CF0CEF9D6F8E4101E4807
:10ABD000896A002200230BF0FEFD386660B3B94697
:10ABE00049F8540F40466168FFF796FF80463046AB
:10ABF00009F00CFD2901AB0103F4006301F480713D
:10AC0000194305F003030B4342463946CDF8009043
:10AC100006F17C000BF0ADFC054606F5807009F0EE
:10AC2000FDFC002D02DA2046FFF788FF284603B01E
:10AC3000BDE8F043FFF796BF6FF00B05F3E703B0F5
:10AC4000BDE8F083A4020020DC02002070B5436858
:10AC500004461E690D46002201460023144807F0F1
:10AC600063FC014608BB342220680CF07CF9616863
:10AC70002846FFF751FF0546304609F0C7FC2A4633
:10AC8000216806F17C0007F041FA054606F5807060
:10AC900009F0C4FC002D03DA216805480BF0DBFD48
:10ACA0002846BDE87040FFF75DBF6FF00B0070BD38
:10ACB000C002002070B543681E690446304609F0A2
:10ACC000A5FC216806F17C000BF0F5FC054606F5B5
:10ACD000807009F0A3FC216803480BF0BCFD2846F6
:10ACE000BDE87040FFF73EBFC00200202DE9F04FE5
:10ACF000046985B004F580730546009318460BF08F
:10AD0000E2FD204609F082FCD4F8FC20686995F841
:10AD10002030002A40F08D80190700F18D8004F169
:10AD2000FC01C0B2FEF75AF8002805DA6FF01205F0
:10AD30000023C4F8FC3075E0D4F8FC000028F5D0FE
:10AD400009F0DBFA0028F1D06669D4F818B0E76999
:10AD5000D4F8FC00002E08BF1026BBF1000F08BF7E
:10AD60004FF0100B57B9CDE9020709F0C6FA374981
:10AD700002AA09F0D8FF039F002F60D0D4F82480E6
:10AD8000B8F1000F45D001DC4FF0FF38D4F828A00F
:10AD9000D4F82C90D4F8FC00BAF1000F08BF4FF0A3
:10ADA000400AB9F1000F08BF4FF020098268B2FBDA
:10ADB000F7F2019209F0A1FAD4F8FC1021602449BD
:10ADC000019A61602349244BA160E7612349E16056
:10ADD00004F17C07C4E9056BC4E90AA9C4E90828A1
:10ADE00023612146384606F07DFE00280BDA95F8EF
:10ADF0002030DA0707D49B0724D42146384606F0D2
:10AE00000DFE002808DAFFF7ADFE0028054609DA36
:10AE10008EE74FF40078B9E72146384606F062FE27
:10AE2000051EF0DB009809F0F9FB284605B0BDE8E7
:10AE3000F08F6FF00F057BE76FF0850578E76FF017
:10AE4000150575E76FF01D0572E700BF9545040015
:10AE5000F1450400D545040091450400C1450400B6
:10AE6000020600F07F0312D5082B05D1010700F080
:10AE70000F0306D50E48704710F0780F12D100F07E
:10AE80000F034C2000EB43100A4B18447047082B6B
:10AE900005D1020700F00F0306D50748704710F0F0
:10AEA000780FF6D000207047044800EB431070473D
:10AEB000900C0020440B0020B00D0020B00C0020AE
:10AEC000014902480BF0D6BD6C0B0020A004002005
:10AED000014601480BF06BBD280300200248002208
:10AEE000002307F003BC00BF2803002013B512485D
:10AEF00000F0B6FE114B98421AD1114803F058FFEA
:10AF00000024104803F09AFF0F49104800944FF0B6
:10AF1000FF334FF4806207F07DFD0D490B480BF0C5
:10AF2000CBFD0C480C490BF089FD204602B010BD4A
:10AF30006FF00400FAE700BF41B103000000AD0B61
:10AF40008E7E040014750400C01B0020A0040020A5
:10AF5000807E04006C0B00205DB2030010B50E492A
:10AF6000BFF35B8F002351E8002F012A03D141E892
:10AF700000300028F7D1BFF35B8F0CD151F8044C9F
:10AF80001439204609F081F8783004D12046BDE814
:10AF9000104009F056B810BD640B002038B50024ED
:10AFA00064F07F00C0B2FFF75BFF013409F0DEFC04
:10AFB000082CF5D10E4D0024E0B2FFF751FF0369D4
:10AFC00003B90561013409F0D1FC082C05F14005F5
:10AFD000F2D1084809F0CAFC074BD3F87C2212B919
:10AFE000064AC3F87C22064809F0C0FC002038BDA0
:10AFF000D4110020900C0020440B0020D40D002020
:10B00000B00D002010B5054CFFF768FF20B1416876
:10B0100020460BF020FCF7E710BD00BF880200209F
:10B0200007B500230E48002201A907F07DFA90B170
:10B03000FFF7E8FF0A480022002301A907F074FA8D
:10B0400038B90198042340600374FFF741FFFFF70C
:10B0500037FF002001E00198406003B05DF804FB79
:10B0600088020020022810B511D8094B1C5CFFF79C
:10B07000D7FF60B1002202740472FFF729FF054B6D
:10B0800093F824301BB1BDE81040FFF719BF10BD85
:10B090008B7E0400440B0020F8B5877806463846BE
:10B0A000FFF7DEFE3B06F578044612D5002D43D1AE
:10B0B000FFF7B6FF034600283ED00122A5770274B1
:10B0C000032202739C60FFF703FFBDE8F840FFF71F
:10B0D000F7BE4DB1012D2FD1FFF7A2FF034658B3A4
:10B0E000657705740573EDE7FFF79AFF20B3B27833
:10B0F000124B12F0800F02F0080111D041B1D3F8C9
:10B10000A836E36001230374022303738460DAE743
:10B1100002F00F02142101FB0233D3F80836F0E7E6
:10B1200011B1D3F8A837ECE702F00F02142101FBAC
:10B130000233D3F80837E4E7F8BD00BF00700240DF
:10B14000F0B5064689B01422002103A80BF00BFFCE
:10B150003378013B052B21D8DFE803F07A03141480
:10B160006A1603238DF814300024FFF759FF0346B5
:10B17000A0B1047400F10802DDE9050182E80300D2
:10B1800018461DE00423EDE7B7783846FFF768FE60
:10B19000837A044623B1013B022B43D909B0F0BDA9
:10B1A0003B06F57813D5002DF8D1FFF739FF03469C
:10B1B0000028F3D00122A5770274032202739C6059
:10B1C000FFF786FE09B0BDE8F040FFF779BE55B144
:10B1D000012DE3D1FFF724FF03460028DED0657779
:10B1E00005740573EBE7FFF71BFF07460028D5D072
:10B1F0000123037402230373846004F10C01B0780B
:10B2000009F015FC134AE168B2F88C328B4206D97A
:10B210005B1AA2F88C3201F06DF83846D0E7A2F83C
:10B220008C52FAE7304609B0BDE8F040FFF734BF72
:10B2300001A801F03DF89DF80530052B04D19DF8DB
:10B24000043013F0600FA9D0034B059301248CE761
:10B2500002248AE7440B0020B00C00202DE9F043C3
:10B26000A64CDFF89C9285B08046FFF737FE074674
:10B2700010B905B0BDE8F08394F825303A7C3BB9AD
:10B28000002A00F0868079689D480BF0E4FAECE72C
:10B29000042A42D8DFE812F07D0005000001160103
:10B2A00040013B7BBD68032B37D8DFE803F0023D4C
:10B2B0005A5F6E69934B002232607260D3F880143B
:10B2C0003170D3F884147170D3F88814D3F88C04D7
:10B2D00041EA00217180D3F89014D3F8940441EA34
:10B2E0000021B180D3F89814D3F89C3441EA0323A9
:10B2F000F3800823EB6030687168834B03C3114609
:10B300002B68687A984796F90030002B08DBF388A1
:10B3100033B1A4F88C3200F0EDFF79684846B4E709
:10B320000023A4F88C32F8E76B7F002BF5D02B7F3D
:10B33000002BF2D000266E774FF0FF3273482E7745
:10B340004FF0FF3309F025FB6B6901936B68CDE982
:10B35000023601A9687A00F0D9FC6C4809F01BFBA1
:10B36000DBE72B680121687A9847D6E7AB7A6BB99F
:10B37000EB7F5BB965484FF0FF324FF0FF3309F0C8
:10B3800008FB00F0BDFF614809F005FB2B680221B6
:10B39000E9E73A7A042AC0D8DFE802F059032367C4
:10B3A000730000F02BFC05460028B6D100F066FBC8
:10B3B000BFF35B8F5649012351E8002F002A03D1C8
:10B3C00041E800300028F7D1BFF35B8FA5D141F8E9
:10B3D000085C41F8105CE0696361143908F0DAFD3B
:10B3E0009BE7002565F07F00C0B2FFF739FD037AC7
:10B3F00013B1407A01F0E8F80135082DF2D194F844
:10B4000054311BB194F8550101F0DEF80025E8B283
:10B41000FFF726FD037A13B1407A01F0D5F8013524
:10B42000082DF4D194F874321BB194F8750201F030
:10B43000CBF8002000F0C6FB012384F825302368F8
:10B44000002B3FF46AAF00210220984765E70025F2
:10B4500084F8255001F01EF8FFF780FD2368002BCB
:10B460003FF45BAF29460420EFE7002B3FF455AFD4
:10B4700000F0CEFB2368002B3FF44FAF00210520E6
:10B48000E3E72268002A3FF448AF002B3FF445AFC2
:10B4900000210620904740E708F110054FF0FF33E8
:10B4A0004FF0FF32284609F074FAFFF777FD28467F
:10B4B00009F071FA58F8283C002B3FF42EAF002118
:10B4C0000120C2E794F874327BB1012584F88952D7
:10B4D00084F88852FFF7A4FD38B10E4A057405734D
:10B4E0008260FFF7F5FCFFF7EBFC58F8283C002BD7
:10B4F0003FF413AF00210A20A7E700BF440B002050
:10B500008802002000700240480B00207C0B0020C5
:10B51000640B0020B00D00200AF022F800F0BAFF02
:10B5200000F0A2FAFFF76EFDFFF738FD0AF011F800
:10B53000014800F095FBF0E641B1030038B5164D27
:10B5400095F824402CBB05F138000BF0BCF92046DF
:10B5500001F08CF922460121E8612720FFF704F869
:10B5600009F0F7FFFFF71AFD044610B9012385F82B
:10B5700024300A4B1B680BB1FFF7A2FC4FF080434D
:10B58000D3F83834DB0702D50020FFF76BFD2046E7
:10B5900038BD0024FBE700BF440B00202803002037
:10B5A000074B93F824203AB193F82530002B14BFB1
:10B5B00000206FF0120070476FF01200704700BF5C
:10B5C000440B002038B5104B93F824300446C3B127
:10B5D00005782846FFF744FC10B96FF0150038BD18
:10B5E000457223798372638843602078618810F004
:10B5F000080F02D14B1E0B42EFD109F013FA0020C5
:10B60000EDE76FF01200EAE7440B002038B5124B6B
:10B6100093F824200546CAB193F82530B3B1FFF75B
:10B620001FFC0446A8B1837A012B12D007D9023B34
:10B63000012B07D96369A3610020E06038BD00F0E9
:10B6400065FEF7E7284600F007FEF3E76FF012000B
:10B65000F4E76FF01500F1E7440B002038B50E4B0E
:10B6600093F82420054682B193F825306BB1FFF79B
:10B67000F7FB68B115F008040AD1284600F00EFE69
:10B68000284600F0D9FF204638BD6FF01200FBE7D6
:10B690006FF01500F8E700BF440B002038B50C4BE5
:10B6A00093F8242005460C4662B193F825304BB13F
:10B6B000FFF7D6FB48B144B1284600F0D5FD207015
:10B6C000002038BD6FF01200FBE76FF01500F8E7BF
:10B6D000440B002070B5134E96F824300446C3B1D5
:10B6E000FFF7BEFB0546B8B1230705D4204600F09E
:10B6F000D5FD204600F0A0FF2B7A83B901232B72E1
:10B7000096F825300BB9002070BD204600F05CFF94
:10B71000F9E76FF01200F7E76FF01500F4E76FF04C
:10B720007700F1E7440B00202DE9F043DFF8E480D7
:10B730001E4698F8243085B0074689461546002BEA
:10B7400061D098F82530002B5DD003065ED5FFF759
:10B7500087FB0446002859D0037A002B56D04FF0BF
:10B76000FF334FF0FF3208F1380009F012F9A37FE0
:10B770004BB108F1380009F00EF96FF00A042046C9
:10B7800005B0BDE8F083A37AC5B13BB30123A3772D
:10B790004FF0000801A93846CDE90195CDF80C809D
:10B7A00000F0B4FA1C4B984229D084F81E801EBBCE
:10B7B0006FF00404194809F0EEF8E0E7E27F02B107
:10B7C000E577002BE2D100F0A7FD8742DED000F044
:10B7D00097FD124809F0DFF80024D0E7B8F80A30E6
:10B7E0009D42F0D26268B5FBF2F302FB1353002BCB
:10B7F000E9D10123E377E6E7C6F80080D8E706B190
:10B8000035600024D6E76FF01204B8E76FF0150436
:10B81000B5E700BF440B00200000AD0B7C0B0020FF
:10B820002DE9F0411D46204B174693F824200E4683
:10B83000002A33D093F8253083B3030631D401B9FD
:10B840007FBBFFF70DFB044658B3037A4BB34FF0B1
:10B85000FF3316484FF0FF3209F09BF8E368BB4214
:10B86000984628BFB84646B93FB905B12B600F4886
:10B8700009F091F80020BDE8F081A1694246304608
:10B880000BF049FBA3694344A361E368A3EB0803FE
:10B89000E360002DEBD0C5F80080E8E76FF0120000
:10B8A000E9E76FF01500E6E7440B00207C0B002071
:10B8B00070B51E4D95F82420034682B395F82520D7
:10B8C0006AB31B062ED4FFF7CBFA044650B3037AB3
:10B8D00043B34FF0FF334FF0FF3205F1380009F06A
:10B8E00058F8E368B3B9012663692677A361637FDB
:10B8F00083B1FFF795FB30B905F1380009F04BF83B
:10B900006FF00B0070BD067484600673FFF7E0FAF9
:10B91000FFF7D6FA064809F03EF80020F2E76FF08C
:10B920001200EFE76FF01500ECE700BF440B0020BA
:10B930007C0B002010B5084B93F824300C462BB13B
:10B94000FFF78EFA28B10460002010BD6FF01200DE
:10B95000FBE76FF01500F8E7440B0020014B18607F
:10B96000704700BF440B002008B5074B93F8243004
:10B9700023B1FFF775FA20B1406808BD6FF01200DF
:10B98000FBE76FF01500F8E7440B00204FF0805301
:10B99000D3F83021082A06D1D3F83431052B04D846
:10B9A000034AD05C7047002070470120704700BFF9
:10B9B0008F7E0400064B10F0800FA3F1D80208BF61
:10B9C000134600F00F00182202FB0030704700BF42
:10B9D000EC140020EFF31180202383F31288BFF3CF
:10B9E0006F8F0A4BD3F8001C032261B949F27531FD
:10B9F000C3F8001CC3F8142DC3F8001C80F3118891
:10BA0000BFF36F8F7047C3F8142DF7E700E00640CF
:10BA1000EFF31180202383F31288BFF36F8F0A4B5B
:10BA2000D3F8001C61B949F27532C3F8002CC3F891
:10BA3000141DC3F8002C80F31188BFF36F8F70477B
:10BA40000022C3F8142DF6E700E006404FF08053C3
:10BA5000D3F83031082B02BF024B0022C3F81C2C54
:10BA6000704700BF00700240024A00231360024A80
:10BA700013707047CC1500204017002008B54A4BC2
:10BA80004FF40062C3F80024FFF780FF08B1FFF70E
:10BA9000A1FF4FF08053D3F83031082B18D1EFF3CA
:10BAA0001180202383F31288BFF36F8F3F4BD3F8AD
:10BAB000001CC02200296ED149F27531C3F8001C68
:10BAC000C3F8142CC3F8001C80F31188BFF36F8FE8
:10BAD000354B0122C3F80025D3F800241205FBD50D
:10BAE0004FF40062C3F800244FF08053D3F8303194
:10BAF000082B17D1EFF31180202383F31288BFF3B3
:10BB00006F8F2A4BD3F8001C002947D149F27532B8
:10BB1000C3F8002CC3F8141CC3F8002C80F3118860
:10BB2000BFF36F8FFFF732FF30B1FFF771FFFFF701
:10BB30002DFF08B1FFF74EFF4FF08053D3F830319F
:10BB4000082B194B0AD140F2E372C3F800284022B7
:10BB5000C3F80428BFF36F8FBFF34F8F8022C3F861
:10BB60001C250122C3F83025114B40F2FF121A6048
:10BB7000104B00211960104B1970FFF767FF0F4B36
:10BB800019700F4B02221A70FFF700FF50B1BDE889
:10BB90000840FFF73DBFC3F8142C95E70022C3F817
:10BBA000142CBBE708BD00BF0070024000E0064057
:10BBB000C8150020C41500203C1700203E170020A7
:10BBC00040170020094B002210B51A70084A094B93
:10BBD000094C002808BF1346C4F800332720FEF79D
:10BBE00093FC0123C4F8043510BD00BF3F170020AB
:10BBF000FDFFDF01FDFFFF0100700240034B1878DD
:10BC0000012894BF00200120704700BF401700208A
:10BC100010B5EFF31181202383F31288BFF36F8FE8
:10BC20000D4B1B7803F0FF0083B10C4BD3F80024BD
:10BC300012F400720AD10124C3F82C45D3F82C4524
:10BC4000D3F80044A40502D5C3F82C25002081F3C5
:10BC50001188BFF36F8F10BD3F17002000700240A6
:10BC6000F8B51C4B1C7894BB1B4A106001221A705B
:10BC700040F2FF17264664F07F0514F0080FEDB27E
:10BC800014BF39464021284608F0CCFE2846FFF76D
:10BC900091FE0134092C867506730661EBD10024F0
:10BCA00040F2FF17254614F0080FE6B214BF3946DC
:10BCB0004021304608F0B6FE3046FFF77BFE0134E7
:10BCC000092C857505730561EDD10448F8BD04485C
:10BCD000FCE700BF40170020CC1500200000AD0B92
:10BCE0000500AD0B084B10F0800F00F00F0114BFE2
:10BCF000D3F81025D3F8142501238B40134214BF29
:10BD000001200020704700BF007002402DE9F84379
:10BD10000246EFF31187202383F31288BFF36F8F5E
:10BD2000030703D1184B1B78834229D1174B184EB8
:10BD30001C683568104608F06DFEE443A4B24FF06D
:10BD400001092C4309FA00F814EA08041AD1104634
:10BD5000FFF730FE80F80C90034607C91C6183E8AA
:10BD600007009C750B4B0C4845EA0805802235609E
:10BD7000C3F8042187F31188BFF36F8FBDE8F88300
:10BD80000648F7E70648F5E73E170020C8150020EB
:10BD9000C415002000E100E00000AD0B0A00AD0B6F
:10BDA0000B00AD0B10F0080F074B06D0D3F8C00402
:10BDB00010F4803F18BF0020704700F00F0000F51E
:10BDC000947053F820007047007002402DE9F74F3F
:10BDD000A74BA84ED3F85421DAB10022C3F854215E
:10BDE000D3F80413890214D58DF80420D3F8202544
:10BDF000ADF80620D3F8C034002B336814BF4FF0E1
:10BE000001224FF48072134333609B4B01A81B68DF
:10BE10009847974BD3F8604134B10022C3F86021B2
:10BE2000D3F86C44C3F86C44D3F828214AB10022FB
:10BE3000C3F82821914B187808F0ECFD01238340CA
:10BE40001C43DFF83C828F4F98F8005098F900901F
:10BE500015F0080143D1B9F1000F05F00F032EDAF8
:10BE6000894A52F8230020B342F823101422534386
:10BE700003F1804303F51C33D3F80836834A117865
:10BE800003F001034B401370FFF7E0FD804806F01C
:10BE90005FFC2846FFF78EFD837D032B37D12846B4
:10BEA00008F0B8FD012303FA00F03B6823EA000321
:10BEB0003B60DFF8C4A101254FF006095DE0754A3B
:10BEC00052F823000028F4D042F8231014225343E0
:10BED00003F1804303F51C33D3F80837CEE7B9F1FB
:10BEE000000F634B09DBD3F85021002AE1D0002278
:10BEF000C3F85021D3F8A837C0E7D3F82C21002A83
:10BF0000D7D00022C3F82C21D3F8A836B6E7037B9C
:10BF1000DBB9284608F07EFD012303FA00F03B68F8
:10BF2000B9F1000F23EA00033B6001DA882DC0D18C
:10BF300006238DF8043000238DF807304E4B8DF822
:10BF400006501B6801A89847B3E7002DB1D1484BB4
:10BF50000122DA64ADE794FAA4F03268B0FA80F016
:10BF600005FA00F31A430F28326024EA03043A6802
:10BF700040F39480134200F0A180002CEBD13C4BA5
:10BF8000D3F800215AB1C3F80041434B1C703B4B1E
:10BF90001C7001230193384B01A81B689847344B50
:10BFA000D3F85821002A2ED00022C3F85821D3F804
:10BFB0000044C3F80044E30508D5374B01221A704A
:10BFC000022301932C4B01A81B689847A50508D5AF
:10BFD000314B00221A7003230193274B01A81B68E1
:10BFE000984760050FD52C4B1A7862B100221A7061
:10BFF0001F4B0122C3F808259A65042301931E4BA9
:10C0000001A81B6898471A4BD3F85C3103B3204B47
:10C010009B681BB998F80030590619D0144B0022C0
:10C02000C3F85C21D3F88034144A23F07F031370E3
:10C030003B6823F001133B60336823F4803343F003
:10C0400001033360052301930B4B01A81B6898473C
:10C050003A6833681A4207D00D480022002306F0E0
:10C060009BFB002800F09E8003B0BDE8F08F00BF6E
:10C0700000700240C8150020CC1500203E1700209B
:10C080003D170020C4150020087102403C17002015
:10C0900018030020307102403F17002013407FF446
:10C0A0006CAF60F07F018DF804908DF806108DF86C
:10C0B0000730DAF8003001A898475EE7A0F11001D8
:10C0C0008DF804908DF806108DF80750F1E719F0FF
:10C0D000012314BF93FAA3F999FAA9F9B9FA89F9D6
:10C0E000B9F10F0F18D9A9F11005EDB22846FFF7E5
:10C0F00061FC04462846FFF755FE6368B4F814C097
:10C100002268984230D81B1A00EB020E1146636079
:10C11000C4F800E082462AE049F080052846FFF78F
:10C1200049FC4368B0F814A001689A4528BF9A46B4
:10C1300001F06043B3F1005F044604D04248524628
:10C140000AF0E9FE40492268636852442260A2680E
:10C15000A3EB0A03D20768B2636032D5BAF1000FCD
:10C1600031D1002323732EE011464FF0000A6045C1
:10C1700024D1003B18BF012312B3504520D901231D
:10C1800003FA09F32BEA03033B6006238DF804301E
:10C190002E4B8DF8065002221B68A2758DF80720E1
:10C1A00001A89847D7F800B033681BEA03098ED17D
:10C1B000274803B0BDE8F04F06F0CABA0023DBE71A
:10C1C00068B2002BCDD04FF08053D3F83031082B1C
:10C1D00002BF204B8222C3F81C2C336888F8005021
:10C1E000012202FA09F923EA09033360236915F0F1
:10C1F000080F53442361174B17D1002805F00F0592
:10C200004FF0140000FB0530B5BF03EB85030A3582
:10C21000C0F80016C0F80017B5BFC0F804A6C0F8F3
:10C2200004A75A6043F825201EE70028B5BFC3F8CD
:10C23000A016C3F8A017C3F8A4A6C3F8A4A7B4BF58
:10C240005A629A6410E700BFD4130020CC15002076
:10C250001803002000700240024B40F48070C3F8C5
:10C260001805704700700240030713D400F00F0355
:10C2700010F0800F084A0BBF03F5887303F5847331
:10C2800002EB830252F8230008BF5068003818BF41
:10C29000012070470020704700700240034BC3F834
:10C2A0000C0540F48070C3F80C0570470070024024
:10C2B0000023036043600E4BD3F880240270D3F850
:10C2C00084244270D3F88824D3F88C1442EA0122E3
:10C2D0004280D3F89024D3F8941442EA0122828059
:10C2E000D3F89824D3F89C3442EA0323C3807047E0
:10C2F00000700240014B0122DA6470470070024076
:10C30000014B01221A65704700700240014B012267
:10C310005A65704700700240014B1878704700BFA3
:10C320003E17002010B50246EFF31184202383F35B
:10C330001288BFF36F8F08F06DFB0B49012303FADE
:10C3400000F00B6823EA00030B6012F0080101BF44
:10C3500002F00F02054B02F5947243F8221084F3A9
:10C360001188BFF36F8F10BDC81500200070024008
:10C37000F7B50146EFF31185202383F31288BFF34D
:10C380006F8FFFF717FB0646084608F043FB0122B4
:10C3900011F0800F02FA00F22D4818D1036832EA3A
:10C3A00003040AD00846FFF7BDFF0323B37585F3E6
:10C3B0001188BFF36F8F03B0F0BD2649347323EAB1
:10C3C000020303600B6823EA02030B60EDE70B072F
:10C3D00015D48029204B2FD001F00F0404F2DA3459
:10C3E0006400C3F80048D3F80448D3F80478E4B2F2
:10C3F00044F002043C43C3F80448D3F80438154F12
:10C4000004683B6864EA030C1CEA020FCFD01343B4
:10C410003B60002333730323B3758DF807300F4B54
:10C420008DF8061024EA0204062204601B688DF8C9
:10C43000042001A89847BAE740F2B474C3F8004852
:10C44000D3F80448D3F80478E4B244F00404D1E704
:10C45000C4150020C815002000700240CC15002033
:10C4600038B50446094D4FF0FF324FF0FF332846F0
:10C4700006F092F92046FFF77BFF284606F068F9A0
:10C48000034B8022C3F8042138BD00BF18030020ED
:10C4900000E100E0F8B54FF0FF324FF0FF332B48DA
:10C4A00006F07AF92A4B8022C3F884212720FEF770
:10C4B0004DF898B1274E284B34681B68240C24048F
:10C4C0001C43012764BB254D40F2FF133360272036
:10C4D000C5F80445FEF726F8C5F80043204A13784E
:10C4E0008BB11E4B0021C3F808110121C3F80026AF
:10C4F000C3F804165960D3F808110029FBD00021B5
:10C50000C3F808111170154B0022C3F80025FFF77E
:10C510009DFA0E4806F01CF9124B01221A70F8BD64
:10C5200094FAA4F5B5FA85F50F2D2846C6BFA5F1F6
:10C530001000C0B240F08000030701D4FFF718FFDD
:10C5400007FA05F524EA0504BCE700BF180300203C
:10C5500000E100E0C8150020C41500200070024072
:10C560003C1700204017002010B504464FF0FF3262
:10C570004FF0FF33114806F00FF92046FFF7F8FEA1
:10C5800004F00F02012393400D4A14F0800F14BFF2
:10C59000D2F81015D2F814156FEA030315BF0B403B
:10C5A0000B40C2F81035C2F81435044806F0D0F834
:10C5B000044B8022C3F8042110BD00BF18030020E3
:10C5C0000070024000E100E070B50446FFF78AFB0E
:10C5D00068B904F00F02012514F0800F144B05FA1E
:10C5E00002F205D0D3F810150A43C3F8102570BD28
:10C5F000D3F814150A43C3F81425631E062BF6D886
:10C60000EFF31186202383F31288BFF36F8F204648
:10C61000FFF788FE204608F0FDF9064A13688540BA
:10C6200023EA0503136086F31188BFF36F8FDEE7FB
:10C6300000700240C4150020030610B5044605D45E
:10C64000FFF712FE10B12046FFF76CFE014BC3F856
:10C65000184510BD00700240084B70B5C31A0D4656
:10C6600007499B10044659430648402208F0FEF94A
:10C670002B4601462046BDE870401847E4150020CF
:10C68000B76DDBB62470040073B50C4C0C4A402324
:10C69000041B00930D460B460A49A410614306464D
:10C6A000094808F00FFA011E05DA30462B4602B0A1
:10C6B000BDE87040184702B070BD00BFE41500200F
:10C6C0002F4B0400B76DDBB62470040010B5EFF3F8
:10C6D0001184202383F31288BFF36F8F074A1368F6
:10C6E00023F00201DB07116002D4012008F081FE73
:10C6F00084F31188BFF36F8F10BD00BF3416002084
:10C70000002270B5012104461046FDF72DFF0F48A9
:10C7100001F074FE0E4B984215D101F07FFE2669A0
:10C720000C49304607F023FC00280BDB012535645B
:10C730002469084904F11C0007F019FC002801DBFA
:10C74000E564002070BD6FF00400FBE751C80300F2
:10C750000000AD0B187504001FB500220123CDE9C0
:10C760000223094ACDF800D06B46CDF804D008F07A
:10C77000D7F9002805DB4FF480420023684606F015
:10C780000BF805B05DF804FB4D4B040030B4104BC2
:10C790000C2202FB003301460020D3E90E529863BD
:10C7A000EFF31180202484F31288BFF36F8F1C6C89
:10C7B00004F0C00444F002041C6480F31188BFF349
:10C7C0006F8F1DB12B46034830BC184730BC7047F3
:10C7D000E41500202470040010B4EFF3118220232C
:10C7E00083F31288BFF36F8F1748016841F002048A
:10C7F0000460C80707D482F31188BFF36F8F01204C
:10C8000010BC01F023BE4FF08041D1F80C04D1F8E8
:10C810000C14C907EFD5EFF3118083F31288BFF32F
:10C820006F8F0A490B6C03F0C00343F002030B64E3
:10C8300080F31188BFF36F8F82F31188BFF36F8F7E
:10C84000002010BCFFF7A2BF34160020E415002022
:10C8500010B1012804D07047034B1B6C5B0701D15A
:10C86000FFF794BF704700BFE4150020024AC3B22F
:10C870001C2003FB00207047E41500202DE9F04147
:10C880003849BFF35B8F0746012251E8003F41E87A
:10C8900000200028F9D1BFF35B8F33B93249334808
:10C8A0004B60CB608A6007F075FB7B1E012B2BD899
:10C8B000012F07D14FF08043D3F81C3403F003035A
:10C8C000012B21D00AF0F2F80546F8B9284B1B7865
:10C8D000E3B14FF080430222C3F808230646DFF895
:10C8E00094804FF08044D4F81824D4F81834D2033C
:10C8F00015D503F00303012B01D0012F0FD155B340
:10C9000086F31188BFF36F8FBDE8F081EFF31186D6
:10C91000202383F31288BFF36F8F0125DFE7ADB1CA
:10C92000304607F011FED4F81835002BDBD1D4F8CF
:10C930000421002AD7D0C4F80431D4F804310123EB
:10C94000C4F81835C8F88031A360CCE70021212055
:10C9500006F0C4FBE7E74FF080430222C3F804234C
:10C96000D2E700BFE0150020D015002000160020FF
:10C970006617002000E100E008B5074809F0AFFEA7
:10C9800038B10648FDF7FAFF0448FCF7DBF8002051
:10C9900008BD6FF01200FBE760700400A1C903003E
:10C9A0000A2838B5074D044604D1AB680D215B68F1
:10C9B00028469847AB6803485B68E1B29847204631
:10C9C00038BD00BF6070040000F1744000F5A6009F
:10C9D0000A289ABF024B33F910006FF00F0070471E
:10C9E00098770400024B0B6001231360704700BF6F
:10C9F000D875040000487047507504000268154B54
:10CA0000FF2A08BF4FF0FF32C3F824254268FF2AEF
:10CA100008BF4FF0FF32C3F828258268FF2A08BFFD
:10CA20004FF0FF32C3F83025C268FF2A08BF4FF02D
:10CA3000FF32C3F834250269FF2A08BF4FF0FF32E6
:10CA4000C3F838254269FF2A08BF4FF0FF32C3F808
:10CA50003C25704700900240054B994206D14FF0AB
:10CA6000FF324FF0FF33103005F096BE704700BF25
:10CA70000000AD0B2DE9F04743685D6B90B00746B1
:10CA80000AAA0021284608F0E3F9041E6FDB0A9B7E
:10CA90002A681979186800F02BFD041E67DB002254
:10CAA00001212920FDF760FDD7F804803A69574934
:10CAB000404602F059FCFFF787FF041E52DB544D3D
:10CAC0000FCD0AAC0FC495E8030000260DF1040950
:10CAD00084E803000196AB23C9E901668DF80430B0
:10CAE0004C4BD3F82425D2B20492D3F82825D2B2E5
:10CAF0000592D3F83025D2B20692D3F83425D2B2BB
:10CB00000792D3F83825D2B20892D3F83C350AA858
:10CB1000DBB20993FFF772FF012002F051FD04AD73
:10CB200001462846FFF76AFF3B4B994223D1314625
:10CB3000484608F014F8041E14DB082009F0CAFD6A
:10CB40004FF0030A9F2331460AA8CDE90A66CDF8C3
:10CB50001090CDF814A08DF828300C9507F0FFFF49
:10CB6000041E0BDA02F04AFD08B102F035FD204642
:10CB700010B0BDE8F0876FF00404F3E75246494671
:10CB800008F130000AF016F9044600283AD17A6814
:10CB9000537F023B012B33D9167F023E022E8CBFFE
:10CBA00000260126022008F020F8002826DBC3B268
:10CBB000C0F340008642D5D083F002030026012056
:10CBC000ADF800608DF8013008F00FF8041EC9DBE5
:10CBD000022301210AA88DF800400A96CDF810D052
:10CBE00005930C968DF828100B9507F0B8FF0446B6
:10CBF0000028B7D10020002108F015F80446B1E75D
:10CC00000126CFE76FF01204ACE700BF534B0400DE
:10CC100050720400009002400000AD0B2DE9F0437B
:10CC200085B098460B148DF804300B128DF8053042
:10CC30000025174B8DF806100646174602938DF80F
:10CC40000750ADF80C5008F01AF802A802F002FCE8
:10CC5000DFF840904845044610D104222B4629466F
:10CC60000DEB020002F042FC4845044606D10123C8
:10CC700042463946284602F039FC0446304607F061
:10CC8000E3FF204605B0BDE8F043FFF79DBE00BFBF
:10CC90005A0101010000AD0B2DE9F047C1F30B0370
:10CCA000D0F804C007460E461546002A66D0C2F3E7
:10CCB0000B0252EA030461D100295FDBDCF82C206F
:10CCC0004B1993425AD807F0DAFF2046D7F8048070
:10CCD00007F076FF044600284AD1DFF8A890D8F87C
:10CCE0002C30AB421CD108F04FFCAA4604463869F0
:10CCF0002146FFF7B1FE4C4527D14FF4A470002127
:10CD000007F091FF041E5644A5EB0A052DDB002D0C
:10CD1000E5D1012007F054FF002C08BF044627E0AE
:10CD2000B5F5803F09D3B3B2A3B93146012002F073
:10CD30006FFC4FF4803A0446D9E7B5F5805F09D21D
:10CD400011493869104CFFF787FE2046FFF73CFE7B
:10CD50000446DEE7C6F30B000028F1D1314602F0AD
:10CD600057FC4FF4805A0446C1E7012007F028FF22
:10CD7000384607F069FF2046BDE8F0876FF01504DC
:10CD8000F9E700BF0000AD0B0400AD0B2DE9F34740
:10CD90000F46054641681E469046002A79D0002B72
:10CDA00077D0042B01D9B30773D117F0030470D1E6
:10CDB000002F6EDBCA6ABB1993426AD8284607F077
:10CDC0005EFF204607F0FCFE044648B1012007F054
:10CDD000F7FE284607F038FF204602B0BDE8F0878E
:10CDE000032E1ED804213A460DEB010008F0C9FBC2
:10CDF000044601462869FFF72FFE274B9C4235D198
:10CE00003246414601A80AF086F804213A460DEB65
:10CE1000010008F0B3FB044601462869FFF71CFE39
:10CE200024E008F06043B3F1005F02D118F0030F73
:10CE30002BD0DFF864A0042EB14628BF4FF00409C0
:10CE40004A46414601A80AF066F83A46494601A812
:10CE500008F094FB044601462869FFF7FDFD5445A0
:10CE600004D1B6EB0906C8444F44E4D12046FFF78D
:10CE7000ABFD0446012007F0A3FE0646284607F056
:10CE8000E3FE002C08BF3446A6E73A46314640464A
:10CE9000BFE76FF015049FE70000AD0B2DE9F04FE1
:10CEA000824685B088461C461746002A00F08F80CF
:10CEB000002B00F088800029C0F289804268D26A85
:10CEC000CB18934200F28380C8F1000505F00305FA
:10CED00007F0D5FEA54228BF25467B4203F0030399
:10CEE00007F0030658BF5E42764206F00306A642EC
:10CEF00028BF2646631BA41B24F0030423F0030968
:10CF0000A145C8BFA14603F0030BC8BFA3EB040BA8
:10CF1000B9F1000F18D0BB1908EB050249461846B5
:10CF2000019308F02EFB04460146DAF81000FFF7E3
:10CF300093FD284A94423DD1B54205D0019B4A4613
:10CF40001946781909F0F5FFC5B1C5F10406A8EB3B
:10CF50000602042102A808F014FB04460146DAF890
:10CF60001000FFF779FD1B4B9C4223D106F108030B
:10CF70002A460DEB0301384609F0CDFFBBF1000F47
:10CF800017D0082108EB05024A440DEB010008F018
:10CF9000F8FA04460146DAF81000FFF75DFD0D4B84
:10CFA0009C4207D109EB05005A4602A9384409F012
:10CFB000B2FF084C504607F047FE204605B0BDE8DA
:10CFC000F04FFFF701BD184605B0BDE8F08F6FF0D8
:10CFD0001500F9E70000AD0B024B0B600123136055
:10CFE000704700BF3816002000487047FC750400E9
:10CFF00010B5012211460648064C09F0E3FC08F082
:10D0000098FA206008F091FA6060002010BD00BF1F
:10D0100040160020381600204FF08042D2F810153C
:10D02000D2F8103501F01E0123F01F030B4343F02B
:10D030000103C2F81035024B00221A70704700BF7E
:10D04000411700204FF08053D3F83031082B20D106
:10D050004FF08042D2F81015CB071AD5D2F8103510
:10D0600001F01E0123F01F030B43C2F81035D2F864
:10D0700008315BB1D2F8103523F01F030B4343F0A6
:10D080000103C2F810356FF08B007047024B01228C
:10D090001A700020704700BF411700202DE9F041B1
:10D0A0000D46164608F041FA31460746284607F075
:10D0B00015FE78B3B5FBF7F307FB135353BBB6FB71
:10D0C000F7F407FB14642CBBBE421DD34FF0FF32B4
:10D0D0004FF0FF331148DFF8488005F05DFB08F0A2
:10D0E00024FA0746FFF7AEFF044680B9284601F050
:10D0F00031FE98F800300BB1FFF78EFFF61B3D4470
:10D10000F0D1064805F024FB2046BDE8F0816FF021
:10D110008B04F6E76FF01504F6E700BF4016002019
:10D12000411700202DE9F8430E46304619461746B0
:10D130001C4607F0D3FD88B346EA040515F0030545
:10D140002CD1BCB11748DFF860904FF0FF324FF0A0
:10D15000FF3305F021FB24F00304AC4206EB050885
:10D160000BD1124AD2F80034DB07FBD500240D485E
:10D1700005F0EEFA2046BDE8F883FFF763FF50B9EB
:10D180007959404601F006FE99F800300BB1FFF7DF
:10D1900043FF0435E1E76FF08B04E8E76FF0150417
:10D1A000E8E700BF401600204117002000E00140E2
:10D1B000F0B54068057B01F01F0444EA4514056999
:10D1C00087B0002D64D0B2F5001F00F1100506D124
:10D1D0002146284608F09EF9002007B0F0BD01AEB8
:10D1E0000027B2F5800F0197776039D1B3F1007F46
:10D1F00014BF052304238DF804300023CDE9046314
:10D200000393836823FA01F111F001011AD1B2F1FD
:10D21000A07F17D104F01F03620903F5E0732AD041
:10D22000012A3BD11F4A52F82330DB070AD40DF103
:10D23000030632462146284601F0E6FB1A4B984287
:10D240001CD0029603AA2146284601F09FFA174BEC
:10D25000984220D101222146284601F039FCBBE743
:10D26000B3F1C06F05D0B3F1007F14BF01230223D7
:10D27000C1E70323BFE74FF0A042D4E73146284679
:10D2800001F020FC094B9842DBD06FF00B00A4E7C3
:10D290006FF08500A1E76FF015009EE751F823308D
:10D2A000FFDE00BF000300500400AD0B0000AD0B1B
:10D2B00038B545682B69B3B11035284601F0F2FB4B
:10D2C000044680B90146284601F0B8FB084B984255
:10D2D0000BD108492246284601F090FB2246052141
:10D2E0000620FDF741F9002038BD6FF00400FBE790
:10D2F0000000AD0BF9D20300420970B5034602D01D
:10D30000012A17D070BD0D4E326951680029F9D03D
:10D3100003F01F0301250C689D400029F2D08A68A4
:10D320002A4002D04B68304698472CB123682146EA
:10D330001C46F2E7024EE7E72346F8E74C7004008C
:10D34000387004002DE9F043466840F20635D006F7
:10D35000337B87B002EA050554BFC2F340100320B7
:10D3600001F01F07B5F5837F144647EA43178DF890
:10D37000030044D00FD8062D18D007D8B5B1022D20
:10D380003FD06FF0150007B0BDE8F083B5F5807FA2
:10D39000F7D101250AE040F20222954233D0B5F5DB
:10D3A000407F32D0B5F5007FEBD1022522032ED588
:10D3B000726801238B40C2F80835326992BB07F0CE
:10D3C0001F037F092BD0012F79D13F4A02EB830243
:10D3D00084F48033D2F80017C3F30043C4F340440D
:10D3E00044EA430421F4E16144EA800421F00701A6
:10D3F00044EA05230B43C2F800370020C3E70725A2
:10D40000D4E70425D2E70525D0E70325CEE763035B
:10D4100041BF012372688B40C2F80C35CDE74FF055
:10D42000A042D3E710360DF102023946304601F032
:10D43000EBFA14F4403F80460CD13946304608F0F0
:10D4400067F8224B9845D8D19DF80210304601F07C
:10D4500033FBD2E701AB4FF0000903AA394630464F
:10D46000CDE90439CDE90199CDF80C9001F08EF9A0
:10D47000164B984285D114F4003315D09DF8033033
:10D480008DF80E3084F48034C4F300444B4603AA74
:10D49000394630468DF80C508DF80D4001F030FAC9
:10D4A0000A4B9842CDD06CE7CDE9043303AA0DF1C5
:10D4B000030339463046039301F068F9F0E703F5BA
:10D4C000E07352F82330FFDE000300500000AD0B84
:10D4D000036803F01F025B09026004D0012B0348BC
:10D4E00018BF002070474FF0A04070470003005065
:10D4F0002DE9F04FDFF89491DFF894A185B015463F
:10D50000834600EB810140F2FF18594503D100200A
:10D5100005B0BDE8F08FDBF800305E04C3F3C32232
:10D52000C3F3080400F1AC809B0C19F80270444569
:10D5300008BF4FF0FF34222B00F2A580DFE803F094
:10D5400012191F22252B22A3A3A3A33B68A3A3A3E5
:10D55000A3A3A3A3A3A36B818487A3A3A38A91946A
:10D56000979A9D00C5F80C45601C5ED10BF1040B29
:10D57000CBE7C5F81445621CF8D000265FE0C5F87B
:10D580000845F1E7C5F81045F5E7631CC5F80845FF
:10D59000ECD0002604E0661CC5F80C45E6D0012658
:10D5A00003A80394FFF794FF039B012202FA03F3FD
:10D5B000C0F80C3508E0C5F80845002FDBD1631C26
:10D5C000D4D0002632460627DBF80030019303F45E
:10D5D0000040002818BF002203A8009218BF0126AF
:10D5E0000394FFF775FF039C019B009A00EB8400F6
:10D5F000C3F3412CD0F800473B0243EA8C031343AA
:10D6000004EA0A04234343EA4603C0F80037ADE7BF
:10D61000C5F80C45D1E7C5F86045601CDBF8003063
:10D62000A4D0C3F30043002BB9D003A80394FFF7A1
:10D630004FFF039B012606FA03F3C0F80835324674
:10D64000C2E7C5F86445E8E7C5F86845E5E7C5F809
:10D650006C45E2E7C5F82445621C87D0002201260C
:10D66000B2E7C5F828457FE7C5F83045F4E7C5F8C7
:10D670003445F1E7C5F83845EEE7C5F83C4573E7B2
:10D680006FF0150044E76FF0850041E7E47E040089
:10D69000F0F8FCFFF7B50746002201210220FCF755
:10D6A00063FF0220FCF730FF7D683E692C68002193
:10D6B000C4F8001537602F6901AA384607F0C8FB87
:10D6C00000284EDB019B3A6819791868FFF710FFB4
:10D6D000002846DB6B69C4F824356A7E2B7E134331
:10D6E000AA7E1343C4F86C35AB68D90712D506F18E
:10D6F000140007F07CFE1D4B984234D1307D04F1BC
:10D700000C0204F5907107F068FE337D012098400B
:10D7100000F00CFE0823C4F800352B7B53B9C4F885
:10D720001031D4F810313369C4F834350123C4F80A
:10D7300038352360AB68DA075CBF4FF48073C4F8F8
:10D740000433AB685B0744BF4FF48003C4F8043371
:10D75000F368C4F8443500200123C4F84805A360E9
:10D76000E36003B0F0BD6FF00400FAE70000AD0B1A
:10D770002DE9F041044607690D4609F097F94FF08D
:10D780002008B0B91F4B1B789BB16426606807F076
:10D7900039FCF0B9012007F01EFE013EF6D1002150
:10D7A000212005F09BFCF0E781F31188BFF36F8F18
:10D7B000F5E7EFF311810E4688F31288BFF36F8F00
:10D7C000606807F01FFC80B981F31188BFF36F8F89
:10D7D000EFE7EFF311810E4688F31288BFF36F8FE6
:10D7E000606807F00FFC0028DED0FB681D70F96848
:10D7F0000122204607F046FB86F31188BFF36F8FA6
:10D80000BDE8F081661700207FB5054640682969AC
:10D810008A6C0B6D0ABBABB14C6C8B6516461A4615
:10D82000C96C0291CDE9004611B3002B18BF134615
:10D8300000226946039302F0BBF80E4B98420AD0CF
:10D840006FF004032C69236304F1200004F080FFCF
:10D85000002384F85C3004B070BD4C6C13B19A4264
:10D8600028BF1A46002C8A6514BF16460026D7E743
:10D870000B46DDE70000AD0B2DE9F04F89B00E46F9
:10D880000093436801938B88046999040746914685
:10D8900000F128814FF0FF324FF0FF3304F1100008
:10D8A00004F07AFF6660D7F81080D7F804A098F8E3
:10D8B0005D301BB1D8F800309E427DD0B6F804C070
:10D8C0001CF4006F40F04D811CF0090F40F04681C0
:10D8D000CCF34513082B40F041813568B64B9D428F
:10D8E00040F23C810AF1080BBBE80F000DF10C0E71
:10D8F000AEE80F00DBF80030CEF80030AF4B9D42B1
:10D9000040F2F980AE4B9D4240F2F880AD4B9D4213
:10D9100040F2F780AC4B9D4240F2F680AB4B9D420B
:10D9200040F2F580AA4B9D422CBF4FF000454FF0CE
:10D9300080451CF0020F05950CF0040300F0EA800E
:10D94000002B14BF032302238DF81830CCF30013EF
:10D950008DF81930DAF80030D3F808351CF0020FD2
:10D960004FEA5312CCF3400103F01F0340F0D9807B
:10D97000002A00F0D380012A40F016819549012247
:10D9800002FA03F3C1F80C3598F85D302BB150461C
:10D9900001F0D6FF002388F85D3043468E4A03A984
:10D9A000504601F099FF8D4B984240F0C78001230B
:10D9B00088F85D30C8F80060012384F85C30019B72
:10D9C000596A4A1C03D003F1280007F0CBFCB9F1D7
:10D9D000000F40F0C980C4F834900023A36304F121
:10D9E000480204F1380104F1340007F0B9FB009B50
:10D9F0006064002B40F0C180E3630023236404F1E2
:10DA0000500204F1400104F13C0007F0A9FBE0647E
:10DA100020680023236348B183683BB101210830AB
:10DA200007F0B1FB2368186908F054FE3846FFF789
:10DA3000EBFE0022A06B1346834240F0A780002338
:10DA4000256C1946A94240F0A8809342264638BF6B
:10DA500013464FF4FA5202FB03F556F8203B4FF001
:10DA600000081B68B5FBF3F54FF4004CC835414680
:10DA700040F2E7304FF47A720023E5FB0C01FAF72D
:10DA80003FFC02460B46304604F086FE18B9256B73
:10DA900015F1740F13D10198C4F8588001F050FFAC
:10DAA00084F85D803F696FF073053D6307F12000E6
:10DAB00004F04EFE87F85C80304604F093FE236845
:10DAC000002B3DD09A68002A3AD0998811F48056EC
:10DAD00036D1186908F0FEFD20683146083007F09D
